:020000040800F2
:10000000D8070020590100081D1B000859150008D9
:1000100000000000000000000000000000000000E0
:10002000000000000000000000000000D91C0008D3
:100030000000000000000000C11B0008011E0008B5
:1000400089010008000000008901000889010008FA
:1000500089010008E7130008890100080714000857
:1000600000000000890100088901000889010008DA
:10007000090E00088901000889010008000000003D
:10008000751F00080000000000000000F51E0008B9
:1000900089010008FD1E0008FF1E000889010008F4
:1000A000890100088901000889010008152200085B
:1000B0008901000800F002F800F03EF80CA030C8FA
:1000C000083824182D18A246671EAB4654465D46D4
:1000D000AC4201D100F030F87E460F3E0FCCB64660
:1000E0000126334200D0FB1AA246AB4633431847E1
:1000F000E027000000280000103A02D378C878C139
:10010000FAD8520701D330C830C101D504680C6059
:10011000704700000023002400250026103A01D378
:1001200078C1FBD8520700D330C100D50B607047AF
:100130001FB51FBD10B510BD00F098FD1146FFF7AB
:10014000F7FF02F051FA00F0B0FD03B4FFF7F2FF41
:1001500003BC00F0E5FD00000F4880F308880F485D
:100160000168090E0E4A914205D10E480E49016000
:100170000E480F4901600F4880470F480047FEE7CF
:10018000FEE7FEE7FEE7FEE7FEE700000B480C494E
:100190000C4A0D4B70470000D807002004000000F7
:1001A0001F00000018100240010000000000014084
:1001B00000000000051E0008B5000008D80100205E
:1001C000D8070020D8030020D803002001E004C095
:1001D000091F0429FBD28B0701D50280801CC907A7
:1001E00000D00270704700290BD0C30702D0027004
:1001F000401C491E022904D3830702D50280801CBB
:10020000891EE3E70022EEE70022DFE70022030970
:100210008B422CD3030A8B4211D300239C464EE021
:1002200003460B433CD4002243088B4231D30309DD
:100230008B421CD3030A8B4201D394463FE0C3098F
:100240008B4201D3CB01C01A524183098B4201D3A7
:100250008B01C01A524143098B4201D34B01C01A92
:10026000524103098B4201D30B01C01A5241C3080A
:100270008B4201D3CB00C01A524183088B4201D379
:100280008B00C01A524143088B4201D34B00C01A65
:100290005241411A00D201465241104670475DE07A
:1002A000CA0F00D04942031000D3404253400022FD
:1002B0009C4603098B422DD3030A8B4212D3FC22A6
:1002C000890112BA030A8B420CD3890192118B4225
:1002D00008D3890192118B4204D389013AD092113B
:1002E00000E08909C3098B4201D3CB01C01A5241F6
:1002F00083098B4201D38B01C01A524143098B42BF
:1003000001D34B01C01A524103098B4201D30B01A7
:10031000C01A5241C3088B4201D3CB00C01A5241CC
:1003200083088B4201D38B00C01A5241D9D24308B3
:100330008B4201D34B00C01A5241411A00D20146F0
:10034000634652415B10104601D34042002B00D55A
:100350004942704763465B1000D3404201B500201C
:10036000C046C04602BD7047704770470246C80F7E
:10037000C00781434B0030B54B405B009B0D20D044
:100380001923DB06C91801231B05994220DB03242E
:10039000A40704251346AB400BD3002B04D1EB0676
:1003A00013409B00E34204D4012464070023121984
:1003B0005941FF231B0599420BD2C9000143500F3D
:1003C00009E0CB0204D501430803024305D00548E8
:1003D00030BDFF21C905084330BD08460721090586
:1003E000884330BD0000C07FF0B5F94D0C091E09EF
:1003F0002C402E402F468BB0A7437DD0B543FCD078
:10040000002E7AD0002CFCD00D465D40ED0F254328
:10041000AC1BFF25AD0464190894C502440DC90244
:100420002143500DDC0204430120C0070143044373
:10043000D2020191200C110C00958C460104234638
:100440008B430A9161460904E24D8A430991010AEE
:100450007D4449198039097805464D4301266D18B8
:10046000F605751B6943C90C640B891C4C43641861
:10047000B5012C1B250C2E04B4434C434D43210CD9
:10048000691889090591009DE90701D00121C90773
:1004900004912C4601996708CD072F434C08059D10
:1004A000E10B4D432D0C29466646754302950D46DA
:1004B00045432E46029D7D1BB44100950D465D438C
:1004C00001942C0C2F040D465543AE462D0C3D4394
:1004D000029503947546049C2D04641B049406D273
:1004E000029C039D641C002675410395029401AC97
:1004F00070CC009F7D1B01E03EE162E1B441090444
:100500000095079101940599A4086143090C0C46D4
:100510004443650BE7040C4666467443A646640BE9
:100520003C43039502947446049DE4042C1B0494FC
:1005300006D2029C039D641C00267541039502941B
:1005400001AC70CC009F7D1BB44101940C465C4310
:100550000095650FE7000C465443A646640F3C43E4
:10056000039502947446049DE4002C1B049406D267
:10057000029C039D641C002675410395029401AC06
:1005800070CC009F7D1BB441AE09AF06049DC9002D
:10059000AD092F43049DA406AD060495079D344381
:1005A00069180791059DE10B4D432D0C29466646C0
:1005B000754302950D4645432E46029D7D1BB44171
:1005C00000950D465D4301942C0C2F040D465543B8
:1005D000AE462D0C3D43029503947546049C2D04B4
:1005E000641B049406D2029C039D641C0026754182
:1005F0000395029401AC70CC009F7D1BB441019423
:100600008C050694079C890A611800950791019C46
:100610000599A4086143090C0D464543680BEF0496
:100620000D46644665436C0B3C43049FED047D1B03
:10063000AC4602D20025641C6841009E019D371B18
:1006400085410846584301950C46460FC500544362
:10065000600F28436546E4002C1B02D20025401C95
:100660006E41019D3F1AB5412846BD0980062843C9
:100670008446A009BF064E020699A40676180743D1
:10068000079D002068410A99079019430020099BA3
:1006900000906046FF1913434041E20F64003A4363
:1006A000A4460446D71A8C41A04203D901200090E9
:1006B00020463A46C70F941840416246D20F224363
:1006C000644664000494009CBE466400D71AA446A5
:1006D000044602978C417746002F01D1A04204D9ED
:1006E0006046401C8446029A2046C40FA6469418D1
:1006F0004041049A0546D20F224364466400D31A4F
:100700008D417146002901D1A84202D928461A46D6
:10071000641C10430122002800D01643610200200F
:10072000079B891904465C410223002C02DB49180F
:1007300013466441089DCE0A2D145D194B056705CB
:10074000E10A2C050D1908993E43C9076940002BA1
:1007500008D0934006D30022761C5141002B01D1D2
:10076000760876001C4A002D43DB154241D0AA438F
:100770003FD030460BB0F0BD06180D464D41174C2A
:100780007642AC411AD395181C465C41134A6D421F
:10079000A24113D3012252054C00D4420AD15C007D
:1007A000D4420BD04B4002D592021143E2E74900FC
:1007B0004908DFE75940C90FC90718E00020084978
:1007C000D8E7054801420DD10342F7D0F2E7000017
:1007D0000000FF07FC2300000000F07F0000E0FFA6
:1007E0000000F87F114859400143C01241400020E9
:1007F000C0E70123089A9B069A4205DC03225207B0
:100800008918C90FC907B5E7052252078918074A91
:100810001143D2125140ADE770B515461C46024651
:100820000B4628462146FFF7DFFD70BDFFFFFF7F27
:100830001F22030C02D10F22000402D0030E03D0AA
:1008400004E00020014670470002083A030F01D17E
:100850000001121F830F01D18000921E002801DBCE
:100860004000521E120551184205C0124118104690
:100870007047C10FC90700D04042012292071143BF
:10088000D6E701218907D3E7F0B58B4C0F09254640
:1008900089B0BD437BD01D092646AE43FAD00E4633
:1008A0005E402740F60F3E43254071D0240121428F
:1008B000FBD0FF24AD19A4042D1B039501252D05A4
:1008C000DB02DB0AC9022B43C90A29431E010901C5
:1008D000040F130F050121431701880B8203914375
:1008E0002D098C46A90B1E438A039543B30B9A032B
:1008F00096433F09BA0B9403A74302962E467E43C4
:100900000497B6464E19D7190C46019654430597DD
:100910007E43371B7646BF1B3601B646BE0B3619E3
:1009200000967646BC043719009C01D3641C0094E1
:100930006400002F01D001263443029E049F7543BA
:1009400066467E430496760034196E00341900948E
:10095000029C019E1C196643751BAE4606946546B3
:100960004519059C05956C43594375460891691ACC
:100970000191049E01465143A41B0491611A009CFD
:100980000791E10605D061090122114302E072E0FE
:100990006EE06109089D00272C0A2D066918049D48
:1009A0007C412A0A2D066918019D6241AC0DAD02F9
:1009B0006D185441079A910D920255196141029A9E
:1009C000644658435443069B059A5A43121A131B14
:1009D0009A0E9B015B187A41010B0005C318514127
:1009E000220A200644195A419A4200D2491C012089
:1009F0004002814203D315230226F64302E014236A
:100A00000326F6432020C51AA9401746AF40DA4016
:100A10000A4320460399D840091473181905511840
:100A2000039A3843D2075140AC4009D00122944088
:100A300006D30022401C5141002C01D14008400047
:100A40001E4A934212D3012203989206904207DB7A
:100A50000520400709181A480143C012414004E02C
:100A6000032040070818C10FC907002009B0F0BDD6
:100A70000020F107FAE705180C464C4111486D4279
:100A8000A04115D394181A465A410E486442904129
:100A90000ED301204A004005824209D35A00824207
:100AA00006D35940C90F084AC90700201143DDE7A2
:100AB00000200649DAE700000000FF07FE070000FB
:100AC000FFFFFF7F0000E0FF0000F07F0000F87FE5
:100AD0000121C9050123411842001B06D3185B0EF2
:100AE0000AD0C1100722D206891840075242D142CB
:100AF00001D5520089187047090208D50146002A1D
:100B000003D0C10FC907002070471046704742024A
:100B100002D0002002497047072109050143F4E78C
:100B20000000F87FF8B5224C4E00069DA6420AD878
:100B3000A64201D1002806D15E00A64203D8A642F3
:100B40000AD1002A08D00D24240425422CD029469D
:100B5000002000F061F8F8BD0C461C430CD499420B
:100B600002D0EFF30080F8BD904202D0EFF3008096
:100B7000F8BDEFF30080F8BD09242407E5008B429F
:100B800006D0EFF30080A043591A06D2284304E0B0
:100B9000101A05D3EFF30080A04380F30088F8BD5E
:100BA000EFF30080A043F1E7009500F04DF8F8BDA9
:100BB0000000E0FF10B5FF231B0644009C421DD837
:100BC0004C009C421AD80346124A0B4307D4401AE1
:100BD00002D3EFF3008010BDEFF3008010BD081AC0
:100BE00006D2EFF3008001219043C907084302E0D9
:100BF000EFF30080904380F3008810BD0D231B04A9
:100C00001A4204D01146002000F006F810BD00F092
:100C100025F810BD00000090C80212D54803400F0F
:100C2000002804D0C803C043012188407047EFF377
:100C300000800001000903210907084380F30088B0
:100C4000704700207047000010B500200249029A4A
:100C500000F033F810BD00000000F87F10B5024826
:100C600000F02BF810BD00000000C07F754600F0BA
:100C700053F8AE46050069465346C008C000854695
:100C800018B020B5FFF782FA60BC00274908B646C5
:100C90000026C0C5C0C5C0C5C0C5C0C5C0C5C0C58B
:100CA000C0C5403D49008D46704710B50446C0465A
:100CB000C0462046FFF749FA10BD10B50C46110793
:100CC000090F092904D00A290AD008290CD104E007
:100CD00011460820FFF7A0FF06E0510606D501E007
:100CE000510601D50120C007214610BDD10607D508
:100CF00001010909CC084907000E0006044309E078
:100D0000410F20024907000A0143200E00061D2260
:100D1000D14101430846E7E70048704774010020CD
:100D200001491820ABBEFEE72600020070471CB543
:100D3000684600F0F9FB022000900321684601712B
:100D40000121C17169460920C00600F075FB1CBD78
:100D50001CB5684600F0E8FB0220009003216846BD
:100D600001710121C1716946014800F065FB1CBD9C
:100D70000004004810B504211E4800F0B5F9012810
:100D800036D11C4800F094F904461A4800F0F1F9F5
:100D90001848806A022805D0FF38FF38023800283A
:100DA00020D10FE014480078400014490C5212483A
:100DB0000078401CC0B2104908700A2801D10020F8
:100DC000087010E00E48007840000E490C520C48A4
:100DD0000078401CC0B20A4908700A2801D10020DE
:100DE000087000E000BF00BF0421024800F024F9B1
:100DF00010BD0000002401407000002026010020EA
:100E0000710000201201002010B5FFF7B3FF10BDE4
:100E100000B587B0FFF78BFFFFF79AFF01A800F03E
:100E2000ADF91C4800F016F90121480200F016FF48
:100E3000002000F0C7FE00200190012069460872E2
:100E40000020059003900490069001A9114800F03D
:100E500067F9072202210F4800F0E0F80D4800F082
:100E600009F901210B4800F0E9F800BF0A490948D7
:100E700000F022F90028F9D001220421054800F0F1
:100E800044F90021034800F061F9024800F06CF9D0
:100E900007B000BD002401400100000138B5044640
:100EA0000C216846017044700121817000F038FE09
:100EB00038BD0000F0B58DB0002400200C9000BFBC
:100EC0004948806804210840002806D00C98411C3D
:100ED00089B20C9145498842F2DB4348806A022876
:100EE00039D100024049886206E02046611CCCB23C
:100EF00040003F49085AC7190A2CF6DB3846FFF76D
:100F0000C0FC05463B4A3C4BFFF7BEFC00223B4B76
:100F100001910090FFF768FA0022394B039102908B
:100F2000FFF762FA0022374B05910490FFF7ACFC03
:100F30000022354B07910690FFF756FA0022334BFB
:100F400009910890FFF7A0FC0B910A90FFF70EFAA9
:100F50002F49086038E002202349886206E02046D5
:100F6000611CCCB240002B49085AC7190A2CF6DB89
:100F70003846FFF786FC05461E4A1F4BFFF784FCE8
:100F800000221E4B01910090FFF72EFA00221C4B0D
:100F900003910290FFF728FA00221A4B0591049062
:100FA000FFF772FC0022184B07910690FFF71CFA1E
:100FB0000022164B09910890FFF766FC0B910A90EE
:100FC000FFF7D4F9144908601021074800F074F8BD
:100FD000012803D11021044800F02CF8024800F049
:100FE000C3F80DB0F0BD000000240140FF8F0000E9
:100FF000260100206666666666660A400000244098
:101000000000B040000036400000084000408F4023
:101010006C000020120100206800002010B50B4673
:101020000021846A1C43846200BF0C46144321469D
:10103000416110BD0160704701607047002904D014
:10104000826801231A43826003E0826802231A4304
:101050008260704710B504460548844207D10121DB
:10106000401500F00BFE0021601500F007FE10BDDA
:101070000024014030B501460020002200238C6886
:101080000125ED072C438C6000BF8C68E30FDB0764
:10109000521C0F242403A24201D0002BF5D18C68EE
:1010A000E40FE407002C01D1086C00E0002030BD03
:1010B0000146086C80B2704730B50246002000231C
:1010C000012424060C40002C05D0946801252D062F
:1010D000AC43234600E013681C460C40002C01D0B2
:1010E000012000E0002030BD10B5024600200023A2
:1010F00054680C40234614680C40002C03D0002B8D
:1011000001D0012000E0002010BD002A03D0436878
:101110000B43436002E043688B4343607047000029
:1011200010B50022C268084B1A400C7964030B68A2
:1011300023438C682343CC6823430C6923434C69C5
:1011400023431A43C26010BD03D2FFFF002905D01C
:10115000C26801231B031A43C26004E0C268012372
:101160001B039A43C2607047816804221143816067
:10117000704781681022114381607047002101602F
:1011800001718160C16001614161704710B510213A
:101190000920C00600F0BAF9012801D100F088FF4B
:1011A00010BD10B500F03AF800F082FC00F0CEFB64
:1011B00000F09AFC10BD10B50121080700F02EFDCB
:1011C000012000F0EFFC012801D100F0E1FC012139
:1011D0002320400400F012FD00F00BFC00F09CFF07
:1011E00000F08EFE002000F0C9FE00F0FFF9FFF7CE
:1011F0000FFE0120FFF752FE00F0C8FBFFF7D1FF02
:1012000010BD10B50446002000F0D8FD10BD10B58B
:101210000446012000F0D2FD10BD000010B57D2471
:10122000E400C020204009490870201248700223C1
:101230000A4619466B2000F02DFB022805D0022338
:10124000024A19466B2000F025FB10BD6401002006
:1012500070B504460D46402C05D0012240210920DE
:10126000C00600F06DF9202C05D0012220210920B4
:10127000C00600F065F9802C05D0012280210920EC
:10128000C00600F05DF909480078012806D12A4619
:1012900021460920C00600F053F905E0012221464D
:1012A0000920C00600F04CF970BD00005C00002071
:1012B00070B53B493B48006801F030FA1DD23A490D
:1012C0003A48006801F02AFA08D800212020FFF7E8
:1012D000BFFF00F03BF93649088060E035493348EC
:1012E000006801F0F1F95AD200218020FFF7B0FF29
:1012F00000F02CF93049088051E030492B48006853
:1013000001F00CFA12D229480068FFF7E1FB04460D
:1013100000222B4B01F0A6F908D200214020FFF754
:1013200097FF00F013F92449088038E02548006849
:1013300001881F4800F092FB00280BD0214800686C
:101340000A3020490860084600680088002801D15A
:101350001D4808601D4800680188174800F07EFBA2
:1013600000281CD01A480078002801D1012000E094
:10137000002017490870084600788100114800686D
:10138000801C081811490860084600680088002879
:1013900005D00846006881782020FFF759FF70BD0E
:1013A00000007A466C00002000406746680000207C
:1013B00074000020000061467600002000400346D3
:1013C0000020A7407C000020742700088000002037
:1013D0007800002010B5012000F020F8012801D18C
:1013E00000F016F810BD10B5FFF7F4FF10BD10B5F2
:1013F000102000F013F8012804D1102000F008F8A4
:1014000000F056FE10BD10B5FFF7F1FF10BD000053
:101410000149486170470000000401400146002076
:10142000044A52690A40002A01D0012000E000204D
:101430007047000000040140F0B50A460021002377
:10144000002400BF3DE001258D402B4615681D405E
:101450002C469C4234D11579012D02D01579022DEC
:1014600016D185684F000326BE40B5438560557987
:101470004E00B540866835438560858801268E40DC
:10148000B5438580858896798E40B6B23543858090
:1014900005684F000326BE40B543056015794E0030
:1014A000B540066835430560C5684F000326BE4059
:1014B000B543C560D5794E00B540C6683543C560B3
:1014C000491C1029BFD3F0BDF0B5002300244D07FF
:1014D000EE0E1546B5402B46CD10AE000546203524
:1014E000AD594E07F70E0F26BE40B543CE10B600DD
:1014F00007462037BD51CD10AE003D46AD591D43C6
:101500002C46CD10AD003E467451F0BD0246002081
:10151000138A0B40002B01D0012000E0002070470F
:1015200001857047816170470449016000210171A4
:101530000121417100218171C1717047FFFF0000DD
:10154000002A01D0816100E00185704701480088D0
:10155000704700004800002000BFFEE700B587B0DC
:10156000684600F0FDF8102000F098FB01214805C6
:1015700000F054FB0B4800F08DF80B480090002061
:10158000019002900390FE200490002005900690A8
:101590006946044800F0A8F80121024800F06EF8FE
:1015A00007B000BD00540040130F42B01CB56846A0
:1015B000FFF7BAFF03216846417102210171012141
:1015C000C171817104220921C806FFF77DFF042241
:1015D0000A210920C006FFF777FF03204002009090
:1015E00069460920C006FFF727FF1CBD10B5FFF7AD
:1015F000DDFFFFF7B3FF10BD10B500240121C903C3
:101600001B4800F063F8012819D11A4801780078C6
:10161000401C184A1070022911DD0021144800F006
:101620002DF800BF2046611C8CB2F928FADB01219D
:101630000F4800F023F800200E4908700CE00D4818
:101640000078002808D00121C903094800F03EF8BD
:10165000002801D10749087001214902044800F01F
:1016600035F8012803D14102014800F005F810BD0A
:101670000054004088000020C1617047002904D058
:10168000026801231A43026003E002685208520014
:101690000260704710B504460B48844209D101210D
:1016A000480500F0CBFA00210120400500F0C6FA01
:1016B00008E00121880500F0C1FA00210120800521
:1016C00000F0BCFA10BD00000054004010B5024606
:1016D0000023002093691C460C402346002B01D0B8
:1016E000012000E0002010BD10B50A46002103686B
:1016F0005B085B0003600168144B19409468240286
:1017000053682343194301600F2424061368A3433D
:101710000361036801242343036000218160C160E9
:101720001469936923431946816083680124E403A3
:1017300023438360D16803680B4303604168044B13
:10174000194053691943416010BD0000FFE0CF000C
:10175000FF7FFF070146486AC0B270478162704749
:101760000021016041608160C16001610121C90304
:101770004161002181617047F0B50C46002141684C
:10178000074D2940A505AD0D1604FF273F043E4037
:1017900035431D43059E354329434160F0BD00009C
:1017A000009800FCFFB583B0054617461E4600248E
:1017B00000200290FFF720FF01204003690003038F
:1017C000012200903148FFF7D7FF314C05E0204659
:1017D000611E8CB2002800D152E002212B48FFF795
:1017E00075FF0028F3D029480499FFF7B7FF284C6C
:1017F00005E02046611E8CB2002800D140E0202187
:101800002248FFF763FF0028F3D009208002F2B2DC
:10181000690001235B0600901C48FFF7ADFF16E04E
:101820001B4C05E02046611E8CB2002800D127E049
:1018300004211648FFF74AFF0028F3D01348FFF7AA
:1018400089FF01460298421C92B2029239543046F6
:10185000711E8EB20028E3D10D4C06E02046611EB9
:101860008CB2002801D102900AE020210748FFF73E
:101870002DFF0028F2D020210448FFF7FDFE00BF15
:10188000FFF7BAFE029807B0F0BD00000054004018
:10189000FFAF0000FFB581B007461C4600250026BB
:1018A000FFF7AAFE012040030090601CC2B279003D
:1018B00001235B062348FFF75FFF234D05E0284621
:1018C000691E8DB2002800D136E002211D48FFF7C5
:1018D000FDFE0028F3D01B480299FFF73FFF15E0FB
:1018E000194D05E02846691E8DB2002800D123E07D
:1018F00002211448FFF7EAFE0028F3D03046721C9C
:1019000096B2039A115C0F48FFF728FFA642E7DB67
:101910000D4D06E02846691E8DB2002801D1002633
:101920000AE020210748FFF7D1FE0028F2D020214D
:101930000448FFF7A1FE00BFFFF75EFE304605B08A
:10194000F0BD000000540040FFAF000010B50D4C8A
:1019500000200D49087032212046FEF761FC400648
:10196000400E0949487002230A4624216B20FFF7E4
:1019700091FF022805D00223034A24216B20FFF7A0
:1019800089FF10BDB20C0000640100201CB5684640
:10199000FFF7CAFD03216846417100210171C17141
:1019A0000120009069460920C006FFF745FD00228E
:1019B0000849094800F0D3FD084A0621064800F00E
:1019C0009DFC074A0321044800F098FC024800F0FF
:1019D000E7FD1CBDE51900083C01002003120008CA
:1019E0000F12000810B501210920C006FFF78EFD77
:1019F00010BD1CB56846FFF797FD0321684641718D
:101A000001210171C171002181712020009069467E
:101A10000920C006FFF710FD20210920C006FFF7AE
:101A200081FD4020009069460920C006FFF704FDB3
:101A300040210920C006FFF775FD8020009069460F
:101A40000920C006FFF7F8FC80210920C006FFF737
:101A500069FD00212020FFF7FBFB1CBD10B50246ED
:101A600000201388104C2488A3420CDD13880F4CEF
:101A7000E31A0D4C24881B198B4201DB012300E083
:101A80000023184609E01388074C2488E31A8B4288
:101A900001DB012300E000231846002802D0024B9E
:101AA0001B88138010BD000048000020FFFF0000CD
:101AB00010B50B4CF02020400A49087020124870E5
:101AC00002230A4604216B20FFF7E4FE022805D01A
:101AD0000223044A04216B20FFF7DCFE10BD000046
:101AE000D03900006401002010B5192464020020E0
:101AF000094908702012487002230A460C216B2005
:101B0000FFF7C8FE022805D00223034A0C216B20F0
:101B1000FFF7C0FE10BD0000640100207047000008
:101B200000218278002A27D0184A03231B02D218EA
:101B300003789B109B00D15802789207D30EFF22A6
:101B40009A400B469343194642789207120E037847
:101B50009B07DB0E9A4011430C4A03231B02D21849
:101B600003789B109B00D1500278D306DB0E012234
:101B70009A40064B1A6007E00278D306DB0E01227A
:101B80009A40024B80331A607047000000E100E089
:101B90000349096882001143014A1160704700003F
:101BA0000070004001460020044A52680A40002AA2
:101BB00001D0012000E000207047000000700040CC
:101BC000704700000C4949680122920391430A4A78
:101BD00051601146496882B21143074A516011466B
:101BE000096B92159143044A11631146096B020C6B
:101BF0001143014A1163704700100240002905D0CB
:101C0000054A52690243044B5A6104E0024A526990
:101C10008243014B5A61704700100240002905D0F1
:101C2000054AD2690243044BDA6104E0024AD269F0
:101C30008243014BDA61704700100240002905D051
:101C4000054A12690243044B1A6104E0024A126910
:101C50008243014B1A61704700100240002905D0F1
:101C6000054A92690243044B9A6104E0024A926970
:101C70008243014B9A61704700100240002905D051
:101C8000054AD2680243044BDA6004E0024AD26893
:101C90008243014BDA607047001002400549096B2E
:101CA00010229143034A11631146096B01431163EA
:101CB000704700000010024010B50223054A2021A1
:101CC0006B20FFF76FFD022803D10248007801491D
:101CD000087010BD64010020704700000CB50020A2
:101CE00001900090334800680121084331490860A1
:101CF00000BF304800680221084000900198401C55
:101D000001900098002804D1052109030198884218
:101D1000EFD12848006802210840002802D00120A5
:101D2000009001E0002000900098012840D111208F
:101D3000214908601F4840681E49486008464068BD
:101D4000486008460068012109068843194908606F
:101D5000084640687B21C903884316494860084605
:101D600040680521C90408431249486008460068D4
:101D70000121090608430F49086000BF0D480068AB
:101D80000121490608400028F8D00A484068800828
:101D90008000084948600846406802210843054918
:101DA000486000BF034840680C2108400828F9D16A
:101DB0000CBD0000001002400020024000B50146AA
:101DC000FFF7C4FB084A1080002905D00120074A0C
:101DD0001070074A107005E00120064A10700020BC
:101DE000034A107000BD00005E0000204C0000207F
:101DF0005C00002054000020004870479000002044
:101E00007047000010B51B480068012108431949BC
:101E10000860084640681849084016494860084666
:101E20000068164908401349086008460068012107
:101E3000890488430F490860084640683F21090427
:101E400088430C4948600846C06A00090001C8621E
:101E50000846006BFF215431884306490863084651
:101E6000406B40084000486300208860FFF736FF61
:101E700010BD0000001002400CB8FF08FFFFF6FE86
:101E800070B50446084800F099F805192946064837
:101E900000F0B4F801220221034800F0A5F8022165
:101EA000014800F079F870BD0020004010B5002214
:101EB0000221044800F098F80221024800F06CF872
:101EC00010BD00000020004010B50221084800F0BD
:101ED00078F801280BD10221054800F05AF8FFF7E5
:101EE000E5FF00F09BF9FFF787FF0121017010BDAE
:101EF0000020004010B5FFF7E7FF10BD70477047A6
:101F00000EB501210220FFF789FE012001900C4946
:101F1000684601800021018141808172694609483B
:101F200000F06EF80121074800F033F80122114655
:101F3000044800F059F80121024800F031F80EBDC4
:101F4000BF5D00000004004010B50121074800F00B
:101F500038F8012808D10121044800F01DF8044890
:101F60000088401C0249088010BD000000040040A9
:101F70004800002010B5FFF7E7FF10BD38B5044654
:101F8000102168460170447001218170FFF7C8FD7F
:101F900038BDCA4302827047CA43028270470000BC
:101FA000002904D0028801231A43028003E002883A
:101FB000014B1A4002807047FEFF00000146486A4C
:101FC000704730B50246002000230024158A0D40DA
:101FD0002B4695890D402C46002B03D0002C01D0B8
:101FE000012000E0002030BD002A03D083890B438C
:101FF000838102E083898B4383817047416370470B
:1020000000220288154B984206D001239B07984274
:1020100002D0134B984203D1124B1A404B881A43FB
:10202000114B984203D0114B1A400B891A4302807E
:102030004B68C3620B880385084B984208D00C4B51
:10204000984205D00B4B984202D00B4B984201D1DD
:102050008B7A03860123838270470000002C0140A5
:10206000000400408FFF000000100040FFFC000053
:1020700000400140004401400048014010B50446C2
:1020800032210948FFF7EAFC00280BD0FFF75EFA7F
:102090000549088005480078062803D10020034937
:1020A0000870207010BD0000860000208400002011
:1020B00010B5012003490870FFF748FA024908806B
:1020C00010BD0000600000208600002010B504460E
:1020D00000F03DF805490648FFF7C0FC002803D092
:1020E0000020207000F02CF810BD00001027000028
:1020F0005E00002010B5044600F029F8FF21F531FC
:102100000448FFF7ABFC002803D00020207000F04B
:1021100017F810BD5E0000201CB56846FFF704FAF2
:1021200003216846417101210171C1710021817152
:102130000420009069460920C006FFF77DF91CBD08
:1021400010B504210920C006FFF7ECF910BD10B549
:1021500004210920C006FFF7E3F910BD10B5264998
:10216000264800F070F801281AD12349234800F0CE
:1021700061F823484078802802D100202049487027
:102180001E4800F0A8F8C1B21D484278801C815456
:10219000801E4078401C1A4948700A20FFF770FEE4
:1021A0001849164800F04FF8012806D1134800F0EE
:1021B00092F81449114800F03DF813490F4800F017
:1021C00042F8012803D110490C4800F033F80F49B8
:1021D0000A4800F038F8012803D10C49074800F0FC
:1021E00029F80B49054800F02EF8012803D10849C9
:1021F000024800F01FF810BD05010500003801403D
:102200009000002000030300000301000E011100F4
:102210000003020010B5FFF7A1FF10BD10B50022AA
:102220000249034800F036F810BD00000501050022
:102230000038014010B5002300220B0C01249C4003
:102240002246026210BD70B502460B4600240021F2
:10225000002500201E04350ED9B201268E403146DD
:10226000012D02D11668314006E0022D02D15668D8
:10227000314001E0966831401C0C0126A6403446EE
:10228000D6693440002903D0002C01D0012000E0A1
:10229000002070BDF8B503460024002600960025F6
:1022A000002018460E04340ECEB200960127009E80
:1022B000B7403D46022C01D1001D02E0032C00D1A5
:1022C0000830002A03D006682E43066002E0066844
:1022D000AE430660F8BD0146888CC005C00D70474E
:1022E00030B47446641E2578641CAB4204D3635D2D
:1022F0005B00E31830BC18471D46F8E710B58C00AA
:10230000034608331A5110BD70B504466068804713
:102310000546E0784007400F002802DD2088401C79
:102320002080E078C009A8421CD0E078382188439A
:10233000E1788906490F491CC90038221140084339
:10234000E0708006400F032810DBE078802188438E
:10235000E901802211400843E070E0783821884389
:10236000E07003E0E07838218843E070E0784007CF
:10237000400F0300FFF7B4FF06042856ACF1CEF17E
:10238000E078C009E1784906C90F884216D1A078E3
:10239000F0218843A070A068002802D02046A168E0
:1023A000884700202080A07800090001401CA07010
:1023B000E078C008C000401CE07004E0A078F02184
:1023C00088438030A070C8E0E078C009E178490611
:1023D000C90F884212D0A078F02188431030A07035
:1023E000E068002802D02046E1688847002020806D
:1023F000E078C008C000801CE07012E020887828D7
:102400000FDDA078F02188435030A070E0690028EB
:1024100002D02046E1698847E078C008C000401D2E
:10242000E0709AE0E078C009E1784906C90F884277
:1024300025D1A078F0218843A070A068002802D0A0
:102440002046A1688847A07800090001A178491CAE
:102450000907090F0843A070A078F02188432030B5
:10246000A0702069002802D02046216988470020FA
:102470002080E078C008C000C01CE07027E0208801
:10248000042824DDA0780007000F01280BD1A078D4
:10249000F02188433030A0706069002813D02046B6
:1024A000616988470FE0A0780007000F02280AD171
:1024B000A078F02188434030A070A069002802D0A5
:1024C0002046A1698847E078C008C000E07044E079
:1024D000E078C009E1784906C90F884219D0A07890
:1024E000F02188431030A070E068002802D0204618
:1024F000E16888472088042807DA00202080E078F7
:10250000C008C000801CE07003E0E078C008C00094
:10251000E07022E0E078C009E1784906C90F8842FE
:102520000BD1A078F02188436030A070206A002889
:1025300012D02046216A88470EE0A078F021884317
:102540001030A070E068002802D02046E16888477B
:10255000E078C008C000E07000BF00BF70BDF8B5F3
:1025600004460D46164628212046FDF74DFEA0786C
:10257000F02188438030A070656060688047C001AA
:10258000802108400746E07888433843E070E078CF
:1025900040218843B101402211400843E070F8BD5A
:1025A00001460948026805E08A4202D10020C04382
:1025B0007047526A002AF7D103480068486202480F
:1025C00001600020F4E700008C00002010B50548F1
:1025D000046803E02046FFF797FE646A002CF9D1F7
:1025E00010BD00008C000020FEF7E5FDFEF7CEFDDB
:1025F0002EE018480068418816480068FFF72EFA58
:10260000002803D0134909684868804711480068CA
:102610000830104908604068002801D10E48086061
:102620000E48006800680078002807D00B4A12683E
:1026300010680A4A1268126851688847074800689B
:10264000001D064908600068002801D104480860A0
:10265000CFE70000400000201000002044000020D0
:102660000000002070B501250C002D051C4310D47E
:10267000EC4206D4AC420AD4994200D070BD9042DC
:1026800070BDE94217D4EB4215D4994270BD89421E
:1026900070BDEC4206D5AC42F9D58B4200D070BD7E
:1026A000824270BD6D004C00EC4204D25C00EC42F2
:1026B00001D28B4270BD034C30B4FEF733FA30BC0C
:1026C00070BD00BF1900160401230200DB050A4398
:1026D0000DD4DA4203D49A4207D488427047D842D4
:1026E00014D4D94212D48842704780427047DA42EB
:1026F00003D59A42F9D5814270475B004200DA4225
:1027000004D24A00DA4201D28142704710B5024A2F
:10271000FEF750FA10BD00BF0900160401230A009D
:10272000DB0502430DD4DA4203D49A4207D4814236
:102730007047D94214D4D84212D48142704789429A
:102740007047DA4203D59A42F9D5884270475B0058
:102750004A00DA4204D24200DA4201D2884270478B
:102760004840414010B5024A4840FEF723FA10BDE8
:1027700009001604B80B000000000A000100640004
:1027800001000000090001006400020000000800D0
:102790000100640003000000070001006400040061
:1027A00000000600010064000500000005000100B3
:1027B000640006000000040001006400070000003F
:1027C0000300010064000800000002000100640032
:1027D000090000000100010064000A000000000080
:1027E000010064000A00000000000100640009000C
:1027F0000000010001006400080000000200010068
:1028000064000700000003000100640006000000EF
:1028100004000100640005000000050001006400E0
:10282000040000000600010064000300000007002F
:1028300001006400020000000800010064000100C3
:10284000000009000100000000000000000000007E
:1028500080807F7E7D7C7B7A7978777676757473DD
:10286000727171706F6E6E6D6C6C6B6A6A6968689C
:10287000676666656464636362616160605F5F5E32
:102880005E5D5D5C5C5B5B5A5A59595858575756A8
:10289000565555555454535352525251515050500D
:1028A0004F4F4F4E4E4D4D4D4C4C4C4B4B4B4A4A5F
:1028B0004A494949484848474747474646464545A3
:1028C00045444444444343434342424242414141DC
:1028D000F02800080000002090000000F800000828
:1028E000802900089000002048070000140100081B
:1028F000600000204C000020540000200000000078
:1029000000003200B91C000800006400B50E000889
:1029100000001900CD2500080000F401F915000899
:1029200000000100B11200080000000000000000DB
:102930001000002000000020000000000000000047
:10294000F520000800000000CD2000080000000075
:10295000000000007D2000080000000000000000D2
:1029600000000000000000000000000074270008C4
:1029700076270008000000000000000000000000B2
:04000005080000B53A
:00000001FF
