:020000040800F2
:100000009007002091010008F1120008E911000892
:1000100000000000000000000000000000000000E0
:10002000000000000000000000000000851600082D
:100030000000000000000000D9130008711700083C
:10004000C101000800000000C1010008C101000852
:10005000C101000893100008C1010008C101000897
:1000600000000000C1010008C1010008C101000832
:10007000C1010008C1010008C10100080000000022
:10008000A91A00080000000000000000B1180008D4
:10009000C1010008CF18000881190008C10100083B
:1000A000C1010008C1010008C10100087D1D000850
:1000B000C101000800F002F800F03EF80CA030C8C2
:1000C000083824182D18A246671EAB4654465D46D4
:1000D000AC4201D100F030F87E460F3E0FCCB64660
:1000E0000126334200D0FB1AA246AB4633431847E1
:1000F0004027000060270000103A02D378C878C17A
:10010000FAD8520701D330C830C101D504680C6059
:10011000704700000023002400250026103A01D378
:1001200078C1FBD8520700D330C100D50B607047AF
:100130001FB51FBD10B510BD00F042FE1146FFF700
:10014000F7FF02F01DF900F05AFE03B4FFF7F2FFCB
:1001500003BC00F08FFE000070B505460C46164645
:1001600002E00FCC0FC5103E102EFAD2082E02D39B
:1001700003CC03C5083E042E07D301CC01C5361FAE
:1001800003E021782970641C6D1C761EF9D270BDC5
:100190000F4880F308880F480168090E0E4A914203
:1001A00005D10E480E4901600E480F4901600F4805
:1001B00080470F480047FEE7FEE7FEE7FEE7FEE761
:1001C000FEE700000B480C490C4A0D4B704700003D
:1001D00090070020040000001F00000018100240DB
:1001E0000100000000000140000000007517000839
:1001F000B500000890010020900700209003002027
:1002000090030020F8B5042A2CD3830712D00B7872
:10021000491C0370401C521E83070BD00B78491CED
:100220000370401C521E830704D00B78491C0370D6
:10023000401C521E8B079B0F05D0C91ADF002023DC
:10024000DE1B08C90AE0FFF787FFF8BD1D4608C995
:10025000FD401C46B4402C4310C0121F042AF5D2A6
:10026000F308C91A521EF0D40B78491C0370401CC5
:10027000521EEAD40B78491C0370401C012AE4D4B6
:1002800009780170F8BD01E004C0091F0429FBD200
:100290008B0701D50280801CC90700D0027070470F
:1002A00000290BD0C30702D00270401C491E02294E
:1002B00004D3830702D50280801C891EE3E7002255
:1002C000EEE70022DFE7002203098B422CD3030A6A
:1002D0008B4211D300239C464EE003460B433CD493
:1002E000002243088B4231D303098B421CD3030AFB
:1002F0008B4201D394463FE0C3098B4201D3CB012B
:10030000C01A524183098B4201D38B01C01A52415A
:1003100043098B4201D34B01C01A524103098B425E
:1003200001D30B01C01A5241C3088B4201D3CB0049
:10033000C01A524183088B4201D38B00C01A52412C
:1003400043088B4201D34B00C01A5241411A00D2DC
:1003500001465241104670475DE0CA0F00D0494245
:10036000031000D34042534000229C4603098B42B5
:100370002DD3030A8B4212D3FC22890112BA030A3D
:100380008B420CD3890192118B4208D389019211BF
:100390008B4204D389013AD0921100E08909C30944
:1003A0008B4201D3CB01C01A524183098B4201D346
:1003B0008B01C01A524143098B4201D34B01C01A31
:1003C000524103098B4201D30B01C01A5241C308A9
:1003D0008B4201D3CB00C01A524183088B4201D318
:1003E0008B00C01A5241D9D243088B4201D34B0033
:1003F000C01A5241411A00D20146634652415B1075
:10040000104601D34042002B00D549427047634655
:100410005B1000D3404201B50020C046C04602BD7B
:1004200070477047704700000246C80FC0078143FD
:100430004B0030B54B405B009B0D20D01923DB06F1
:10044000C91801231B05994220DB0324A4070425B6
:100450001346AB400BD3002B04D1EB0613409B009B
:10046000E34204D401246407002312195941FF23F5
:100470001B0599420BD2C9000143500F09E0CB0282
:1004800004D501430803024305D0054830BDFF21D0
:10049000C905084330BD084607210905884330BD1A
:1004A0000000C07FF0B5F94D0C091E092C402E400C
:1004B0002F468BB0A7437DD0B543FCD0002E7AD019
:1004C000002CFCD00D465D40ED0F2543AC1BFF25F5
:1004D000AD0464190894C502440DC9022143500DAE
:1004E000DC0204430120C00701430443D20201910E
:1004F000200C110C00958C46010423468B430A9175
:1005000061460904E24D8A430991010A7D44491973
:100510008039097805464D4301266D18F605751B8F
:100520006943C90C640B891C4C436418B5012C1B2E
:10053000250C2E04B4434C434D43210C6918890902
:100540000591009DE90701D00121C90704912C46BE
:1005500001996708CD072F434C08059DE10B4D43DA
:100560002D0C29466646754302950D4645432E4699
:10057000029D7D1BB44100950D465D4301942C0CFA
:100580002F040D465543AE462D0C3D430295039472
:100590007546049C2D04641B049406D2029C039DA2
:1005A000641C002675410395029401AC70CC009F39
:1005B0007D1B01E03EE162E1B44109040095079131
:1005C00001940599A4086143090C0C464443650B4A
:1005D000E7040C4666467443A646640B3C43039509
:1005E00002947446049DE4042C1B049406D2029CDD
:1005F000039D641C002675410395029401AC70CCE8
:10060000009F7D1BB44101940C465C430095650F2F
:10061000E7000C465443A646640F3C4303950294FE
:100620007446049DE4002C1B049406D2029C039D96
:10063000641C002675410395029401AC70CC009FA8
:100640007D1BB441AE09AF06049DC900AD092F431F
:10065000049DA406AD060495079D344369180791CF
:10066000059DE10B4D432D0C2946664675430295C9
:100670000D4645432E46029D7D1BB44100950D4617
:100680005D4301942C0C2F040D465543AE462D0CB2
:100690003D43029503947546049C2D04641B049409
:1006A00006D2029C039D641C0026754103950294AA
:1006B00001AC70CC009F7D1BB44101948C05069465
:1006C000079C890A611800950791019C0599A40867
:1006D0006143090C0D464543680BEF040D46644623
:1006E00065436C0B3C43049FED047D1BAC4602D27A
:1006F0000025641C6841009E019D371B854108460A
:10070000584301950C46460FC5005443600F2843DB
:100710006546E4002C1B02D20025401C6E41019D61
:100720003F1AB5412846BD09800628438446A009E2
:10073000BF064E020699A40676180743079D0020BF
:1007400068410A99079019430020099B0090604670
:10075000FF1913434041E20F64003A43A4460446A4
:10076000D71A8C41A04203D90120009020463A4676
:10077000C70F941840416246D20F2243644664007A
:100780000494009CBE466400D71AA446044602970F
:100790008C417746002F01D1A04204D96046401C0D
:1007A0008446029A2046C40FA64694184041049AF3
:1007B0000546D20F224364466400D31A8D41714628
:1007C000002901D1A84202D928461A46641C1043C8
:1007D0000122002800D0164361020020079B8919DE
:1007E00004465C410223002C02DB49181346644195
:1007F000089DCE0A2D145D194B056705E10A2C05ED
:100800000D1908993E43C9076940002B08D0934051
:1008100006D30022761C5141002B01D176087600C8
:100820001C4A002D43DB154241D0AA433FD030463D
:100830000BB0F0BD06180D464D41174C7642AC4149
:100840001AD395181C465C41134A6D42A24113D33A
:10085000012252054C00D4420AD15C00D4420BD094
:100860004B4002D592021143E2E749004908DFE715
:100870005940C90FC90718E000200849D8E70548C2
:1008800001420DD10342F7D0F2E700000000FF075C
:10089000602200000000F07F0000E0FF0000F87F11
:1008A000114859400143C01241400020C0E70123D4
:1008B000089A9B069A4205DC032252078918C90F41
:1008C000C907B5E7052252078918074A1143D21212
:1008D0005140ADE770B515461C4602460B4628460A
:1008E0002146FFF7DFFD70BDFFFFFF7F1F22030CD6
:1008F00002D10F22000402D0030E03D004E0002036
:10090000014670470002083A030F01D10001121F8F
:10091000830F01D18000921E002801DB4000521E8F
:10092000120551184205C012411810467047C10FF8
:10093000C90700D04042012292071143D6E70121A6
:100940008907D3E7F0B58B4C0F09254689B0BD4325
:100950007BD01D092646AE43FAD00E465E402740A6
:10096000F60F3E43254071D024012142FBD0FF24E5
:10097000AD19A4042D1B039501252D05DB02DB0A0F
:10098000C9022B43C90A29431E010901040F130F91
:10099000050121431701880B820391432D098C46E1
:1009A000A90B1E438A039543B30B9A0396433F0951
:1009B000BA0B9403A74302962E467E430497B6468D
:1009C0004E19D7190C460196544305977E43371BA1
:1009D0007646BF1B3601B646BE0B361900967646E4
:1009E000BC043719009C01D3641C00946400002FE0
:1009F00001D001263443029E049F754366467E4320
:100A00000496760034196E0034190094029C019EFD
:100A10001C196643751BAE46069465464519059C30
:100A200005956C43594375460891691A0191049ED6
:100A300001465143A41B0491611A009C0791E106F1
:100A400005D061090122114302E072E06EE0610904
:100A5000089D00272C0A2D066918049D7C412A0A4E
:100A60002D066918019D6241AC0DAD026D1854410F
:100A7000079A910D920255196141029A64465843B2
:100A80005443069B059A5A43121A131B9A0E9B0154
:100A90005B187A41010B0005C3185141220A200658
:100AA00044195A419A4200D2491C01204002814215
:100AB00003D315230226F64302E014230326F6434C
:100AC0002020C51AA9401746AF40DA400A43204605
:100AD0000399D8400914731819055118039A38431B
:100AE000D2075140AC4009D00122944006D30022E5
:100AF000401C5141002C01D1400840001E4A934245
:100B000012D3012203989206904207DB052040078A
:100B100009181A480143C012414004E0032040076D
:100B20000818C10FC907002009B0F0BD0020F10767
:100B3000FAE705180C464C4111486D42A04115D307
:100B400094181A465A410E48644290410ED301202F
:100B50004A004005824209D35A00824206D35940D6
:100B6000C90F084AC90700201143DDE700200649E4
:100B7000DAE700000000FF07FE070000FFFFFF7F2D
:100B80000000E0FF0000F07F0000F87FF0B5FF25D7
:100B90002D04C609C209FF2704462E400137CB09A0
:100BA0003E4348402A402B400746002A6BD0002B8A
:100BB00069D0AA4267D0AB4265D0002800DA32463D
:100BC0000125ED0529432C4309022002090AD21A06
:100BD0004B0C7F24E31A434C000A7C44E35C7D24E5
:100BE0002404121914145B00A218884201D3521C69
:100BF00000E0400049420C465C4324115C43DB01A9
:100C00006415E318040A5C43C502200D0C464443F6
:100C10006419250A5D432303EC0C0D46654300036C
:100C20000019EB184C42A34201D35B18401CD405B9
:100C30002018002B07D05B00C91804D3401C0029E2
:100C400001D1400840003F2189048A4209D3002A8B
:100C500008DC1106090F04D0032149074018C00F12
:100C6000C007F0BD01224100120689187F225206FA
:100C70009142F6D205214907C84201D59010F0BD36
:100C8000FF20C005F0BD002F00DA32461648AA4208
:100C900007D2AB4205D21902090E17D0F80FC007D0
:100CA000F0BDFF2563002D06AB42F9D84900A942EB
:100CB000F6D8AB4201D1A942F2D0A94201D100211C
:100CC00001E061004908D0050843F0BD1102090E9A
:100CD000FBD0FF200243D005F0BD0A460146104676
:100CE00054E70000121C00000000C07F0102C21582
:100CF00004D00123DB071943002A0ADB9E239A1A3A
:100D000002D40846D0407047FF22410012069142AB
:100D100001D900207047C017C043704710B5FF23AA
:100D20001B0644009C421DD84C009C421AD8034626
:100D3000124A0B4307D4401A02D3EFF3008010BDD0
:100D4000EFF3008010BD081A06D2EFF300800121F6
:100D50009043C907084302E0EFF30080904380F31B
:100D6000008810BD0D231B041A4204D01146002038
:100D700000F006F810BD00F01BF810BD0000009058
:100D8000C80212D54803400F002804D0C803C0434E
:100D9000012188407047EFF3008000010009032122
:100DA0000907084380F3008870470020704700005F
:100DB00010B5024800F02BF810BD00000000C07F05
:100DC000754600F053F8AE46050069465346C00824
:100DD000C000854618B020B5FFF7F4F960BC0027C5
:100DE0004908B6460026C0C5C0C5C0C5C0C5C0C5F7
:100DF000C0C5C0C5C0C5403D49008D46704710B54F
:100E00000446C046C0462046FFF79FF910BD10B506
:100E10000C461107090F092904D00A290AD008290C
:100E20000CD104E011460820FFF7AAFF06E05106A6
:100E300006D501E0510601D50120C007214610BDAD
:100E4000D10607D501010909CC084907000E0006A3
:100E5000044309E0410F20024907000A0143200E24
:100E600000061D22D14101430846E7E700487047CC
:100E70003001002001491820ABBEFEE72600020029
:100E800070470000F0B589B000240020089000BF32
:100E90003D48806804210840002806D00898411C7D
:100EA00089B2089139498842F2DB3748806A0228C2
:100EB0002DD100023449886206E02046611CCCB284
:100EC00040003349085AC7190A2CF6DB3846FFF7A9
:100ED00036FD05462F4A304BFFF734FD00222F4BDD
:100EE00001910090FFF7DEFA00222D4B0391029052
:100EF000FFF7D8FA00222B4B05910490FFF722FD53
:100F000007910690FFF790FA274908602CE002202D
:100F10001D49886206E02046611CCCB2400023498E
:100F2000085AC7190A2CF6DB3846FFF708FD0546B4
:100F3000184A194BFFF706FD0022184B019100904B
:100F4000FFF7B0FA0022164B03910290FFF7AAFABE
:100F50000022144B05910490FFF7F4FC07910690D2
:100F6000FFF762FA124908601021074800F024F8E0
:100F7000012803D11021044800F01CF8024800F0B9
:100F800033F809B0F0BD000000240140FF8F0000DD
:100F9000F20000206666666666660A40000024402D
:100FA0000000B0400000F03F2C000020DE000020D8
:100FB000280000200160704730B502460020002361
:100FC000012424060C40002C05D0946801252D0630
:100FD000AC43234600E013681C460C40002C01D0B3
:100FE000012000E0002030BD8168042211438160AF
:100FF000704710B50121080700F000FA012000F049
:10100000CDF9012802D100F0ADF905E00121080277
:1010100000F0D2F900F0B0F901212320400400F0E3
:10102000DDF900F020F900F053FC00F0ABFC00F01B
:1010300001FD002000F03CFD00F0FEFB012000F06F
:101040003BFC00F09FFE022000F0FEFE00F0CEF818
:1010500010BD10B504460121080200F0ADF900F002
:101060008BF910BD10B50246002003E01478521C25
:101070002318D8B20B464C1EE1B2002BF6D110BD9E
:1010800010B5012000F010F8012801D100F006F899
:1010900010BD10B5FFF7F4FF10BD00000149486115
:1010A000704700000004014001460020044A5269D4
:1010B0000A40002A01D0012000E000207047000013
:1010C00000040140F0B50A4600210023002400BFBF
:1010D0003DE001258D402B4615681D402C469C4265
:1010E00034D11579012D02D01579022D16D18568DC
:1010F0004F000326BE40B543856055794E00B5408C
:10110000866835438560858801268E40B543858095
:10111000858896798E40B6B23543858005684F0044
:101120000326BE40B543056015794E00B5400668FC
:1011300035430560C5684F000326BE40B543C56012
:10114000D5794E00B540C6683543C560491C1029A5
:10115000BFD3F0BDF0B5002300244D07EE0E1546B9
:10116000B5402B46CD10AE0005462035AD594E0793
:10117000F70E0F26BE40B543CE10B6000746203707
:10118000BD51CD10AE003D46AD591D432C46CD108E
:10119000AD003E467451F0BD02460020138A0B405C
:1011A000002B01D0012000E0002070470246002003
:1011B000938A0B40002B01D0012000E000207047F3
:1011C00001857047044901600021017101214171CD
:1011D00000218171C1717047FFFF0000002A01D01A
:1011E000816100E00185704700BFFEE71CB56846DD
:1011F000FFF7E8FF032168464171002101710221D8
:10120000C1710120009069460920C006FFF75AFF0E
:1012100001220649064801F06DF8064A06210448F5
:1012200000F037FF024801F087F81CBD39120008B2
:10123000080100205310000810B501210920C00644
:10124000FFF7AAFF10BD10B510210920C006FFF757
:10125000ADFF0121081AC4B2224610210920C006A0
:10126000FFF7BCFF10BD1CB56846FFF7ABFF1020B1
:10127000009003216846417101210171C171002173
:10128000817169460920C006FFF71CFF1021092063
:10129000C006FFF795FF1CBD10B50246002013885D
:1012A000114C2488A3420DDD1388104CE31A0E4C18
:1012B00024881B190C88A34201DD012300E00023D0
:1012C00018460AE01388084C2488E31A0C88A342C5
:1012D00001DD012300E000231846002802D0024B64
:1012E0001B88138010BD000024000020FFFF0000B9
:1012F0007047000000218278002A27D0184A032373
:101300001B02D21803789B109B00D15802789207D9
:10131000D30EFF229A400B46934319464278920718
:10132000120E03789B07DB0E9A4011430C4A0323ED
:101330001B02D21803789B109B00D1500278D30671
:10134000DB0E01229A40064B1A6007E00278D306B2
:10135000DB0E01229A40024B80331A607047000076
:1013600000E100E00349096882001143014A11606D
:1013700070470000007000400648006802210843E2
:1013800004490860044800690421084302490861CF
:1013900030BF70470070004000ED00E001460020C3
:1013A000044A52680A40002A01D0012000E00020CF
:1013B0007047000000700040002905D0054A5268BF
:1013C0000243044B5A6004E0024A52688243014BD4
:1013D0005A6070470070004070470000002905D037
:1013E000054A52690243044B5A6104E0024A5269B9
:1013F0008243014B5A61704700100240002905D01A
:10140000054AD2690243044BDA6104E0024AD26918
:101410008243014BDA61704700100240002905D079
:10142000054A92690243044B9A6104E0024A9269B8
:101430008243014B9A61704700100240FEB504469A
:101440000025002600200290019000900027864889
:1014500040680C2108400546002D06D0042D07D019
:10146000082D08D00C2D2CD128E0804820602BE0DE
:101470007E48206028E07C4840680F2189040840AD
:101480000646794840680321C90308400290B00C21
:10149000861C0298002803D17548374647430BE065
:1014A0007148C06A0007000F401C01906F48019905
:1014B000FEF709FF70430746276005E06D4820608E
:1014C00002E06A48206000BF00BF67484068F02122
:1014D000084005462D096848405D00902068009945
:1014E000C84060606048406807210902084005461E
:1014F0002D0A6148405D009061680098C140A1607C
:101500005948006BFF2101310840884202D05B48F6
:10151000E0600DE05448406801218903084088429A
:1015200003D0A0684008E06002E0A0688008E060A6
:101530004D48006B40210840402802D050482061AF
:1015400002E00120C00320614748006B10210840E1
:10155000102802D04548606101E02068606142487F
:10156000006B8007800F002802D1A068A06119E0FD
:101570003D48006B8007800F012802D12068A061E0
:1015800010E03948006B8007800F022802D18003E9
:10159000A06107E03448006B8007800F032801D169
:1015A0003248A0613048006B03210904084000283C
:1015B00002D1A068E06120E02B48006B0321090400
:1015C000084001210904884202D12068E06114E04A
:1015D0002548006B03210904084001214904884281
:1015E00002D18010E06108E01F48006B032109046C
:1015F0000840884201D11D48E0611B48006B03216F
:1016000089040840002802D1A068206220E0164822
:10161000006B03218904084001218904884202D11A
:101620002068206214E01048006B03218904084000
:101630000121C904884202D10011206208E00A4851
:10164000006B032189040840884201D107482062C9
:101650000548006B80210840802802D00548606260
:1016600000E06762FEBD00000010024000127A0038
:1016700000093D00006CDC0248000020809FD5007E
:1016800012800000704700000CB50020019000900F
:1016900033480068012108433149086000BF3048E1
:1016A00000680221084000900198401C01900098B9
:1016B000002804D10521090301988842EFD1284868
:1016C000006802210840002802D00120009001E0BB
:1016D000002000900098012840D111202149086085
:1016E0001F4840681E4948600846406848600846F0
:1016F00000680121090688431949086008464068C6
:101700007B21C90388431649486008464068052183
:10171000C9040843124948600846006801210906C7
:1017200008430F49086000BF0D48006801214906C1
:1017300008400028F8D00A4840688008800008491E
:10174000486008464068022108430549486000BFD8
:10175000034840680C2108400828F9D10CBD00005E
:101760000010024000200240004870475C0000204A
:101770007047000010B51B48006801210843194953
:1017800008600846406818490840164948600846FD
:10179000006816490840134908600846006801219E
:1017A000890488430F490860084640683F210904BE
:1017B00088430C4948600846C06A00090001C862B5
:1017C0000846006BFF2154318843064908630846E8
:1017D000406B40084000486300208860FFF754FFDA
:1017E00010BD0000001002400CB8FF08FFFFF6FE1D
:1017F00070B50446084800F09AF9051929460648CC
:1018000000F016FA01220221034800F0A6F9022195
:10181000014800F06AF970BD0020004010B50022B8
:101820000221044800F099F90221024800F05DF914
:1018300010BD0000002000400EB5684600F038FAE8
:1018400001210802FFF7DAFD0A4801900A490B4816
:101850000068FEF738FD81B26846018000210181F1
:1018600041806946064800F0E5F90121044800F08E
:101870003FF90EBDFFFF00001027000034000020DC
:101880000020004010B50221084800F053F901285B
:101890000BD10221054800F025F9FFF7BFFF00F04A
:1018A000DFFAFFF761FF0121017010BD0020004049
:1018B00010B5FFF7E7FF10BD38B5044613216846A1
:1018C0000170447001218170FFF714FD38BD70472D
:1018D00000B58BB009A8FFF775FC06A800F0E8F981
:1018E00001A800F09BF940200990022108A801728C
:1018F00003214172002181720121C17209A90920CD
:10190000C006FFF7DFFB052206210920C006FFF70E
:1019100021FC01214804FFF781FDFF21E0316846E9
:10192000018315480790002168464183018408A877
:10193000817006A9114800F07DF99620039060217E
:10194000684681800121C1800021018201A90B48E4
:1019500000F00EF90821094800F054F90121074868
:1019600000F0B2F80121054800F0C2F80121034857
:1019700000F0CCF80BB000BDCF07000000440140E0
:101980007047000000B58BB009A8FFF71BFC06A844
:1019900000F08EF901A800F041F9802009900221A1
:1019A00008A8017203214172002181720121C172D4
:1019B00009A90920C006FFF785FB05220721092098
:1019C000C006FFF7C7FB01218804FFF727FDFF21B1
:1019D000E03168460183154807900021684641833D
:1019E000018408A8817006A9114800F023F9962007
:1019F00003906021684681800121C180002101821D
:101A000001A90B4800F0B4F80821094800F0FAF8E1
:101A10000121074800F058F80121054800F068F856
:101A20000121034800F072F80BB000BDCF070000A1
:101A3000004801400EB501210220FFF7DFFC012024
:101A400001900C496846018000210181418081722A
:101A50006946094800F0EEF80121074800F042F815
:101A600001221146044800F078F80121024800F0F4
:101A70003FF80EBDBF5D00000004004010B501211D
:101A8000074800F057F8012808D10121044800F068
:101A90002CF804480088401C0249088010BD000052
:101AA000000400402400002010B5FFF7E7FF10BD40
:101AB00038B50446102168460170447001218170D8
:101AC000FFF718FC38BD0000002904D002888023ED
:101AD0001A43028003E00288014B1A4002807047DB
:101AE0007FFF0000CA4302827047CA4302827047E8
:101AF000002904D0028801231A43028003E00288EF
:101B0000014B1A4002807047FEFF0000002907D0F9
:101B10004422125A0123DB031A4344231A5205E0DC
:101B20004422125A53045B0C44221352704701465C
:101B3000486A704730B50246002000230024158A09
:101B40000D402B4695890D402C46002B03D0002CD0
:101B500001D0012000E0002030BD002A03D083899D
:101B60000B43838102E083898B43838170470000AC
:101B700070B5002400220023058C1C4E35400584DE
:101B8000028C8388048B194D6F3D2C40B51E2C4070
:101B90000D882C43751E2A408D892A434D882A437F
:101BA000134DA84208D0134DA84205D0124DA842AB
:101BB00002D0124DA84212D10C4DED1F2A40CD8902
:101BC0002A430A4DED1E2A408D882A43074DFF3DCA
:101BD0002B400B4D2B400D8A2B434D8A2B4383808A
:101BE00004838D684563028470BD0000FEFF000021
:101BF000002C0140004001400044014000480140E9
:101C0000FFFD00000A460021018B034B19400B46E3
:101C10001343194601837047F7FF0000002101803C
:101C20004180818081608181C181018241827047D0
:101C30004163704700220288154B984206D0012369
:101C40009B07984202D0134B984203D1124B1A4083
:101C50004B881A43114B984203D0114B1A400B8901
:101C60001A4302804B68C3620B880385084B984275
:101C700008D00C4B984205D00B4B984202D00B4B2E
:101C8000984201D18B7A038601238382704700003A
:101C9000002C0140000400408FFF000000100040B5
:101CA000FFFC0000004001400044014000480140AA
:101CB0000021C9434160002101800181418081727E
:101CC0007047000010B52649264800F0FEF80128AC
:101CD0001AD12349234800F0E3F8234840788028AC
:101CE00002D10020204948701E4800F0B3F9C1B26B
:101CF0001D484278801C8154801E4078401C1A493F
:101D000048700A20FFF774FD1849164800F0DDF806
:101D1000012806D1134800F09DF91449114800F03C
:101D2000BFF813490F4800F0D0F8012803D110493B
:101D30000C4800F0B5F80F490A4800F0C6F8012831
:101D400003D10C49074800F0ABF80B49054800F0F7
:101D5000BCF8012803D10849024800F0A1F810BDE1
:101D600005010500003801405C000020000303006D
:101D7000000301000E0111000003020010B5FFF77F
:101D8000A1FF10BD00B589B007A8FFF71BFA01211C
:101D90008803FFF743FB01220921C806FFF7DAF9A0
:101DA00001220A210920C006FFF7D4F903204002CE
:101DB0000790022108A80170032141700021817061
:101DC0000121C17007A90920C006FFF77BF901A80E
:101DD00000F045F94B200002019000200290039092
:101DE000049006900C20059001A9114800F0B6F867
:101DF000012210490E4800F08FF801220E490C48CC
:101E000000F08AF801220D49094800F085F8012206
:101E10000B49074800F080F801220A49044800F005
:101E20007BF80121024800F044F809B000BD000031
:101E30000038014005010500000303000003010014
:101E40000E0111000003020038B504461B2168464C
:101E50000170447001218170FFF74CFA38BD000019
:101E600010B500220249034800F056F810BD0000EA
:101E7000050105000038014010B5064800F0EAF8F9
:101E80002021044800F00AF801220349014800F02B
:101E900043F810BD0038014005010500016270479C
:101EA00010B5002300220B0C01249C402246026244
:101EB00010BD002904D0026801231A43026003E028
:101EC0000268520852000260704770B502460B4625
:101ED00000240021002500201E04350ED9B2012661
:101EE0008E403146012D02D11668314006E0022DA8
:101EF00002D15668314001E0966831401C0C012641
:101F0000A6403446D6693440002903D0002C01D0C5
:101F1000012000E0002070BDF8B503460024002633
:101F200000960025002018460E04340ECEB200960E
:101F30000127009EB7403D46022C01D1001D02E062
:101F4000032C00D10830002A03D006682E43066017
:101F500002E00668AE430660F8BD0000F0B58BB045
:101F600004460D46002700200A90002620684008FD
:101F70004000206066680321090330468843064616
:101F8000A8680643666026682D480640E9686868C8
:101F900008432969084306432660A668032109020D
:101FA00030468843064668690643A6606846FFF7E0
:101FB00045FA2448844202D106980A900DE022484E
:101FC000844202D107980A9007E02048844202D157
:101FD00008980A9001E002980A9020680121C9033C
:101FE000084000280CD029680A9A5000FEF76BF9C7
:101FF000074629680A9A5000FEF765F90E4609E07F
:1020000029680A98FEF75FF9074629680A98FEF7DB
:102010005AF90E4628684008B04200D87F1C206854
:102020000121C9030840002806D03807460F38466A
:102030000749084030430746A7810BB0F0BD0000B8
:10204000F3E9FFFF00380140004400400048004031
:10205000F0FF00000146888CC005C00D70474B2181
:10206000C9010160002141608160C1600C210161F2
:1020700000214161704730B47446641E2578641CA9
:10208000AB4204D3635D5B00E31830BC18471D46C8
:10209000F8E710B58C00034608331A5110BD70B52F
:1020A0000446606880470546E0784007400F0028F6
:1020B00002DD2088401C2080E078C009A8421CD0A6
:1020C000E07838218843E1788906490F491CC90026
:1020D000382211400843E0708006400F032810DBCF
:1020E000E07880218843E901802211400843E070B4
:1020F000E07838218843E07003E0E07838218843B5
:10210000E070E0784007400F0300FFF7B4FF0604DB
:102110002856ACF1CEF1E078C009E1784906C90F44
:10212000884216D1A078F0218843A070A0680028CA
:1021300002D02046A168884700202080A0780009AE
:102140000001401CA070E078C008C000401CE07096
:1021500004E0A078F02188438030A070C8E0E078E7
:10216000C009E1784906C90F884212D0A078F02151
:1021700088431030A070E068002802D02046E16853
:10218000884700202080E078C008C000801CE070F4
:1021900012E0208828280FDDA078F02188435030F5
:1021A000A070E069002802D02046E1698847E07805
:1021B000C008C000401DE0709AE0E078C009E178F6
:1021C0004906C90F884225D1A078F0218843A07024
:1021D000A068002802D02046A1688847A07800099E
:1021E0000001A178491C0907090F0843A070A078D5
:1021F000F02188432030A0702069002802D02046BA
:102200002169884700202080E078C008C000C01CF9
:10221000E07027E020880C2824DDA0780007000F5C
:1022200001280BD1A078F02188433030A07060697C
:10223000002813D02046616988470FE0A078000786
:10224000000F02280AD1A078F02188434030A07006
:10225000A069002802D02046A1698847E078C0081C
:10226000C000E07044E0E078C009E1784906C90F99
:10227000884219D0A078F02188431030A070E0681F
:10228000002802D02046E168884720880C2807DA19
:1022900000202080E078C008C000801CE07003E0CF
:1022A000E078C008C000E07022E0E078C009E17882
:1022B0004906C90F88420BD1A078F02188436030CD
:1022C000A070206A002812D02046216A88470EE0BC
:1022D000A078F02188431030A070E068002802D078
:1022E0002046E1688847E078C008C000E07000BF81
:1022F00000BF70BDF8B504460D461646282120469D
:10230000FDF7DFFFA078F02188438030A070656082
:1023100060688047C001802108400746E078884314
:102320003843E070E07840218843B10140221140F9
:102330000843E070F8BD000001460948026805E066
:102340008A4202D10020C0437047526A002AF7D166
:10235000034800684862024801600020F4E700007A
:102360005800002010B50548046803E02046FFF738
:1023700096FE646A002CF9D110BD000058000020C0
:102380000EB5FEF736FE83E0FFF7EEF90078002881
:1023900068D0FFF7E9F90446607809285CD16078D5
:1023A000401EC1B2A01CFEF75DFE6178491EA21C52
:1023B000515C884250D10422A11C02A8FDF722FFE3
:1023C0000422A11D01A8FDF71DFF3249029800F06B
:1023D000B9F802D22F48029006E02F49029800F087
:1023E00033F901D22C4802902A49019800F0AAF84A
:1023F00002D22848019006E02749019800F024F90C
:1024000001D2254801902549029800F0C5F82449D9
:102410000090FEF7BBFB0746224900F04DF8064648
:10242000FEF764FC054629461F48FFF701FC1B49DF
:10243000019800F0B1F81A490090FEF7A7FB074693
:10244000184900F039F80646FEF750FC05462946C3
:102450001648FFF7EDFB00BF002020706070FFF70B
:102460000BFD00BF12480168891C0068FEF714FFCD
:10247000002803D00E490968486880470C48006866
:1024800008300B4908604068002801D109480860FD
:102490007AE70000000034C3000034430000A0408D
:1024A0000000104100001643004401400048014074
:1024B000200000200000002070B501250400ED0779
:1024C0004C4020D4441A01D2001B0919C60D4B0000
:1024D000F2B2FF2A29D01B0E2CD000020C02D31A14
:1024E0002C43DC402843051910D2280A02D3401C93
:1024F0006D0611D0761EF6058019FF2A00DA70BD30
:10250000C00DC00570BD694000F0D0F80120054342
:10251000C541521C761CE8E764089C40C901614033
:102520008900E7D10124A043E4E71B0E440200D058
:10253000034870BD002AFCD1C00FC00770BD00BFAA
:102540000000C07F01230200DB050A430DD4DA42FC
:1025500003D49A4207D488427047D84214D4D9424F
:1025600012D48842704780427047DA4203D59A42BB
:10257000F9D5814270475B004200DA4204D24A003A
:10258000DA4201D28142704710B5024AFEF7C6FB1B
:1025900010BD00BF0900160470B5420064414B0035
:1025A0005C41120E39D01B0E38D0FF2A3CD0FF2BD5
:1025B0003AD040024902400A490A060045184E43F3
:1025C000000A090AD2184843ED017F3A0104731A40
:1025D0004019190C4318990F04D001215B084907D1
:1025E0005B1A521CD80904D3401CF50301D19D0687
:1025F00007D0FF2A08D2D50506D0E40720434019AA
:1026000070BD0125A843F4E7002A01DCE00770BD96
:102610002402FF202043C00570BD1B0EFF2A03D0FB
:10262000FF2B01D0E00770BDFF2645003606B542FE
:1026300006D84D00B54203D8D218FF2A00D0E7E7EC
:10264000004870BD0000C07F01230A00DB05024383
:102650000DD4DA4203D49A4207D481427047D9425A
:1026600014D4D84212D48142704789427047DA426A
:1026700003D59A42F9D5884270475B004A00DA4296
:1026800004D24200DA4201D28842704748404140B9
:1026900010B5024A4840FEF741FB10BD0900160480
:1026A00070B501250400ED074C4022D4441A02D233
:1026B0006C40001B0919C60D4B00F2B2FF2A4BD02B
:1026C0001B0E50D000020C02D31A2C43DC40A8434E
:1026D000051B05D5AD0019D36D08761E521E37D0E7
:1026E000F605280A01D2801970BD70416D0603D02D
:1026F00070BD6940FFF7E6FE9C4009026140490059
:1027000001D0401E70BD0124A04370BD6D081DD0D6
:1027100001202B0C01D12D0410302B0E01D12D02E4
:1027200008302B0F01D12D01001DAB0F01D1AD00E1
:10273000801CEB0F01D16D00401C6D00361A121A7F
:10274000680AF5054019012A02DB70BD002070BD42
:10275000C036300AC00770BD1B0E440201D1FF2BEA
:1027600000D1024870BD002AF0D070BD0000C07FCB
:1027700080807F7E7D7C7B7A7978777676757473BE
:10278000727171706F6E6E6D6C6C6B6A6A6968687D
:10279000676666656464636362616160605F5F5E13
:1027A0005E5D5D5C5C5B5B5A5A5959585857575689
:1027B00056555555545453535252525151505050EE
:1027C0004F4F4F4E4E4D4D4D4C4C4C4B4B4B4A4A40
:1027D0004A49494948484847474747464646454584
:1027E00045444444444343434342424242414141BD
:1027F0008182838485868788898B8C8D8E8F919248
:1028000093959697999A9C9D9FA0A2A3A5A7A8AAE5
:10281000ACAEB0B2B3B5B7B9BCBEC0C2C5C7C9CC07
:10282000CED1D4D7D9DCDFE2E6E9ECF0F3F7FAFE5B
:1028300050280008000000205C000000F80000089C
:10284000AC2800085C0000203407000014010008D8
:102850000000F4014712000800003200850E000855
:1028600000001900652300080000000000000000BF
:102870000000002000000000000000000000000038
:1028800000000000006CDC020000000000000000FE
:102890000102030406070809000000000102030406
:0C28A00001020304060708090000000004
:04000005080000B53A
:00000001FF
