:020000040800F2
:10000000B007002059010008C51300082D0F000893
:1000100000000000000000000000000000000000E0
:100020000000000000000000000000005D15000856
:100030000000000000000000DD1400084916000860
:1000400089010008000000008901000889010008FA
:1000500089010008AB0D000889010008D50D0008D2
:1000600000000000890100088901000889010008DA
:1000700089010008890100088901000800000000CA
:10008000BD17000800000000000000003D17000838
:100090008901000845170008471700088901000872
:1000A000890100088901000889010008E519000894
:1000B0008901000800F002F800F03EF80CA030C8FA
:1000C000083824182D18A246671EAB4654465D46D4
:1000D000AC4201D100F030F87E460F3E0FCCB64660
:1000E0000126334200D0FB1AA246AB4633431847E1
:1000F000101E0000301E0000103A02D378C878C1EC
:10010000FAD8520701D330C830C101D504680C6059
:10011000704700000023002400250026103A01D378
:1001200078C1FBD8520700D330C100D50B607047AF
:100130001FB51FBD10B510BD00F0CAFC1146FFF77A
:10014000F7FF01F039FE00F0E2FC03B4FFF7F2FF25
:1001500003BC00F0E9FC00000F4880F308880F485A
:100160000168090E0E4A914205D10E480E49016000
:100170000E480F4901600F4880470F480047FEE7CF
:10018000FEE7FEE7FEE7FEE7FEE700000B480C494E
:100190000C4A0D4B70470000B0070020040000001F
:1001A0001F00000018100240010000000000014084
:1001B000000000004D160008B5000008B001002046
:1001C000B0070020B0030020B003002001E004C00D
:1001D000091F0429FBD28B0701D50280801CC907A7
:1001E00000D00270704700290BD0C30702D0027004
:1001F000401C491E022904D3830702D50280801CBB
:10020000891EE3E70022EEE70022DFE70022030970
:100210008B422CD3030A8B4211D300239C464EE021
:1002200003460B433CD4002243088B4231D30309DD
:100230008B421CD3030A8B4201D394463FE0C3098F
:100240008B4201D3CB01C01A524183098B4201D3A7
:100250008B01C01A524143098B4201D34B01C01A92
:10026000524103098B4201D30B01C01A5241C3080A
:100270008B4201D3CB00C01A524183088B4201D379
:100280008B00C01A524143088B4201D34B00C01A65
:100290005241411A00D201465241104670475DE07A
:1002A000CA0F00D04942031000D3404253400022FD
:1002B0009C4603098B422DD3030A8B4212D3FC22A6
:1002C000890112BA030A8B420CD3890192118B4225
:1002D00008D3890192118B4204D389013AD092113B
:1002E00000E08909C3098B4201D3CB01C01A5241F6
:1002F00083098B4201D38B01C01A524143098B42BF
:1003000001D34B01C01A524103098B4201D30B01A7
:10031000C01A5241C3088B4201D3CB00C01A5241CC
:1003200083088B4201D38B00C01A5241D9D24308B3
:100330008B4201D34B00C01A5241411A00D20146F0
:10034000634652415B10104601D34042002B00D55A
:100350004942704763465B1000D3404201B500201C
:10036000C046C04602BD7047704770470246C80F7E
:10037000C00781434B0030B54B405B009B0D20D044
:100380001923DB06C91801231B05994220DB03242E
:10039000A40704251346AB400BD3002B04D1EB0676
:1003A00013409B00E34204D4012464070023121984
:1003B0005941FF231B0599420BD2C9000143500F3D
:1003C00009E0CB0204D501430803024305D00548E8
:1003D00030BDFF21C905084330BD08460721090586
:1003E000884330BD0000C07FF0B5F94D0C091E09EF
:1003F0002C402E402F468BB0A7437DD0B543FCD078
:10040000002E7AD0002CFCD00D465D40ED0F254328
:10041000AC1BFF25AD0464190894C502440DC90244
:100420002143500DDC0204430120C0070143044373
:10043000D2020191200C110C00958C460104234638
:100440008B430A9161460904E24D8A430991010AEE
:100450007D4449198039097805464D4301266D18B8
:10046000F605751B6943C90C640B891C4C43641861
:10047000B5012C1B250C2E04B4434C434D43210CD9
:10048000691889090591009DE90701D00121C90773
:1004900004912C4601996708CD072F434C08059D10
:1004A000E10B4D432D0C29466646754302950D46DA
:1004B00045432E46029D7D1BB44100950D465D438C
:1004C00001942C0C2F040D465543AE462D0C3D4394
:1004D000029503947546049C2D04641B049406D273
:1004E000029C039D641C002675410395029401AC97
:1004F00070CC009F7D1B01E03EE162E1B441090444
:100500000095079101940599A4086143090C0C46D4
:100510004443650BE7040C4666467443A646640BE9
:100520003C43039502947446049DE4042C1B0494FC
:1005300006D2029C039D641C00267541039502941B
:1005400001AC70CC009F7D1BB44101940C465C4310
:100550000095650FE7000C465443A646640F3C43E4
:10056000039502947446049DE4002C1B049406D267
:10057000029C039D641C002675410395029401AC06
:1005800070CC009F7D1BB441AE09AF06049DC9002D
:10059000AD092F43049DA406AD060495079D344381
:1005A00069180791059DE10B4D432D0C29466646C0
:1005B000754302950D4645432E46029D7D1BB44171
:1005C00000950D465D4301942C0C2F040D465543B8
:1005D000AE462D0C3D43029503947546049C2D04B4
:1005E000641B049406D2029C039D641C0026754182
:1005F0000395029401AC70CC009F7D1BB441019423
:100600008C050694079C890A611800950791019C46
:100610000599A4086143090C0D464543680BEF0496
:100620000D46644665436C0B3C43049FED047D1B03
:10063000AC4602D20025641C6841009E019D371B18
:1006400085410846584301950C46460FC500544362
:10065000600F28436546E4002C1B02D20025401C95
:100660006E41019D3F1AB5412846BD0980062843C9
:100670008446A009BF064E020699A40676180743D1
:10068000079D002068410A99079019430020099BA3
:1006900000906046FF1913434041E20F64003A4363
:1006A000A4460446D71A8C41A04203D901200090E9
:1006B00020463A46C70F941840416246D20F224363
:1006C000644664000494009CBE466400D71AA446A5
:1006D000044602978C417746002F01D1A04204D9ED
:1006E0006046401C8446029A2046C40FA6469418D1
:1006F0004041049A0546D20F224364466400D31A4F
:100700008D417146002901D1A84202D928461A46D6
:10071000641C10430122002800D01643610200200F
:10072000079B891904465C410223002C02DB49180F
:1007300013466441089DCE0A2D145D194B056705CB
:10074000E10A2C050D1908993E43C9076940002BA1
:1007500008D0934006D30022761C5141002B01D1D2
:10076000760876001C4A002D43DB154241D0AA438F
:100770003FD030460BB0F0BD06180D464D41174C2A
:100780007642AC411AD395181C465C41134A6D421F
:10079000A24113D3012252054C00D4420AD15C007D
:1007A000D4420BD04B4002D592021143E2E74900FC
:1007B0004908DFE75940C90FC90718E00020084978
:1007C000D8E7054801420DD10342F7D0F2E7000017
:1007D0000000FF072C1A00000000F07F0000E0FF7F
:1007E0000000F87F114859400143C01241400020E9
:1007F000C0E70123089A9B069A4205DC03225207B0
:100800008918C90FC907B5E7052252078918074A91
:100810001143D2125140ADE770B515461C46024651
:100820000B4628462146FFF7DFFD70BDFFFFFF7F27
:100830001F22030C02D10F22000402D0030E03D0AA
:1008400004E00020014670470002083A030F01D17E
:100850000001121F830F01D18000921E002801DBCE
:100860004000521E120551184205C0124118104690
:100870007047C10FC90700D04042012292071143BF
:10088000D6E701218907D3E7F0B58B4C0F09254640
:1008900089B0BD437BD01D092646AE43FAD00E4633
:1008A0005E402740F60F3E43254071D0240121428F
:1008B000FBD0FF24AD19A4042D1B039501252D05A4
:1008C000DB02DB0AC9022B43C90A29431E010901C5
:1008D000040F130F050121431701880B8203914375
:1008E0002D098C46A90B1E438A039543B30B9A032B
:1008F00096433F09BA0B9403A74302962E467E43C4
:100900000497B6464E19D7190C46019654430597DD
:100910007E43371B7646BF1B3601B646BE0B3619E3
:1009200000967646BC043719009C01D3641C0094E1
:100930006400002F01D001263443029E049F7543BA
:1009400066467E430496760034196E00341900948E
:10095000029C019E1C196643751BAE4606946546B3
:100960004519059C05956C43594375460891691ACC
:100970000191049E01465143A41B0491611A009CFD
:100980000791E10605D061090122114302E072E0FE
:100990006EE06109089D00272C0A2D066918049D48
:1009A0007C412A0A2D066918019D6241AC0DAD02F9
:1009B0006D185441079A910D920255196141029A9E
:1009C000644658435443069B059A5A43121A131B14
:1009D0009A0E9B015B187A41010B0005C318514127
:1009E000220A200644195A419A4200D2491C012089
:1009F0004002814203D315230226F64302E014236A
:100A00000326F6432020C51AA9401746AF40DA4016
:100A10000A4320460399D840091473181905511840
:100A2000039A3843D2075140AC4009D00122944088
:100A300006D30022401C5141002C01D14008400047
:100A40001E4A934212D3012203989206904207DB7A
:100A50000520400709181A480143C012414004E02C
:100A6000032040070818C10FC907002009B0F0BDD6
:100A70000020F107FAE705180C464C4111486D4279
:100A8000A04115D394181A465A410E486442904129
:100A90000ED301204A004005824209D35A00824207
:100AA00006D35940C90F084AC90700201143DDE7A2
:100AB00000200649DAE700000000FF07FE070000FB
:100AC000FFFFFF7F0000E0FF0000F07F0000F87FE5
:100AD000754600F025F8AE46050069465346C00845
:100AE000C000854618B020B5FFF750FB60BC00275A
:100AF0004908B6460026C0C5C0C5C0C5C0C5C0C5EA
:100B0000C0C5C0C5C0C5403D49008D46704710B541
:100B10000446C046C0462046FFF717FB10BD000044
:100B2000004870474C01002001491820ABBEFEE789
:100B30002600020070470000F0B589B000240020B4
:100B4000089000BF3D48806804210840002806D076
:100B50000898411C89B2089139498842F2DB37482C
:100B6000806A02282DD100023449886206E02046BE
:100B7000611CCCB240003349085AC7190A2CF6DB75
:100B80003846FFF77EFE05462F4A304BFFF77CFEC6
:100B900000222F4B01910090FFF726FC00222D4BE5
:100BA00003910290FFF720FC00222B4B059104904B
:100BB000FFF76AFE07910690FFF7D8FB2749086008
:100BC0002CE002201D49886206E02046611CCCB260
:100BD00040002349085AC7190A2CF6DB3846FFF7AC
:100BE00050FE0546184A194BFFF74EFE0022184BDF
:100BF00001910090FFF7F8FB0022164B0391029041
:100C0000FFF7F2FB0022144B05910490FFF73CFE26
:100C100007910690FFF7AAFB1249086010210748C8
:100C200000F024F8012803D11021044800F01CF83A
:100C3000024800F033F809B0F0BD00000024014084
:100C4000FF8F0000FE0000206666666666660A404A
:100C5000000024400000B0400000F03F50000020A1
:100C6000EA0000204C0000200160704730B50246C9
:100C700000200023012424060C40002C05D0946899
:100C800001252D06AC43234600E013681C460C40AA
:100C9000002C01D0012000E0002030BD816804223A
:100CA00011438160704710B500F0B6FA00F0E2FB26
:100CB00000F0C2FB00F050FB00F028F800F068FBE9
:100CC00010BD10B50121080700F01AFC012000F04A
:100CD000F7FB012801D100F0E9FB012123204004AA
:100CE00000F0FEFB00F0F5FA00F004FE00F016FE46
:100CF00000F02AFD002000F065FD00F065F900F02D
:100D0000ABFAFFF7D0FF10BD7047000010B57D248F
:100D1000E400C020204009490870201248700223D6
:100D20000A461946122000F01DFA022805D00223B7
:100D3000024A1946122000F015FA10BD3C010020AD
:100D400070B504460D462A4621460920C00600F02B
:100D5000E7F870BD10B50D48006801880C4800F038
:100D6000D1FA002811D009480068001D0749086021
:100D7000084600680088002801D10648086003483A
:100D8000006881782020FFF7DBFF10BD5C000020A9
:100D900058000020341E000810B5012000F024F88F
:100DA000012801D100F01AF810BD10B5FFF7F4FFCB
:100DB00010BD000010B5102000F016F8012805D174
:100DC000102000F00BF801200149087010BD000050
:100DD0004400002010B5FFF7EDFF10BD0149486148
:100DE000704700000004014001460020044A526997
:100DF0000A40002A01D0012000E0002070470000D6
:100E000000040140F0B50A4600210023002400BF81
:100E10003DE001258D402B4615681D402C469C4227
:100E200034D11579012D02D01579022D16D185689E
:100E30004F000326BE40B543856055794E00B5404E
:100E4000866835438560858801268E40B543858058
:100E5000858896798E40B6B23543858005684F0007
:100E60000326BE40B543056015794E00B5400668BF
:100E700035430560C5684F000326BE40B543C560D5
:100E8000D5794E00B540C6683543C560491C102968
:100E9000BFD3F0BDF0B5002300244D07EE0E15467C
:100EA000B5402B46CD10AE0005462035AD594E0756
:100EB000F70E0F26BE40B543CE10B60007462037CA
:100EC000BD51CD10AE003D46AD591D432C46CD1051
:100ED000AD003E467451F0BD02460020138A0B401F
:100EE000002B01D0012000E00020704702460020C6
:100EF000938A0B40002B01D0012000E000207047B6
:100F000001857047816170470449016000210171CA
:100F10000121417100218171C1717047FFFF000003
:100F2000002A01D0816100E00185704700BFFEE723
:100F300000B587B0684600F0F3F8102000F000FB21
:100F40000121480500F0DCFA0B4800F087F80B4857
:100F500000900020019002900390FE200490002059
:100F6000059006906946044800F0A2F80121024865
:100F700000F068F807B000BD00540040130F42B005
:100F80001CB56846FFF7C0FF0121480400F0A8FA2D
:100F900004220921C806FFF77DFF04220A21092047
:100FA000C006FFF777FF0320400200900321684648
:100FB0004171022101710121C171817169460920CC
:100FC000C006FFF71FFF1CBD10B5FFF7D9FFFFF7E5
:100FD000AFFF10BD10B500240121C903164800F071
:100FE00059F8012819D1154801780078401C134A96
:100FF0001070022911DD00210F4800F023F800BF16
:101000002046611C8CB2F928FADB01210A4800F065
:1010100019F80020094908700CE0084800780028F9
:1010200008D00121C903044800F034F8002801D198
:101030000249087010BD000000540040600000200C
:10104000C1617047002904D0026801231A4302607D
:1010500003E00268520852000260704710B504466F
:101060000B48844209D10121480500F059FA0021BA
:101070000120400500F054FA08E00121880500F045
:101080004FFA00210120800500F04AFA10BD00004F
:101090000054004010B502460023002093691C460E
:1010A0000C402346002B01D0012000E0002010BDA1
:1010B00010B50A46002103685B085B000360016805
:1010C000144B194094682402536823431943016068
:1010D0000F2424061368A3430361036801242343F8
:1010E000036000218160C16014699369234319463C
:1010F000816083680124E40323438360D16803682B
:101100000B4303604168044B194053691943416024
:1011100010BD0000FFE0CF00FF7FFF078162704736
:101120000021016041608160C16001610121C9034A
:101130004161002181617047F0B50C460021416892
:10114000074D2940A505AD0D1604FF273F043E407D
:1011500035431D43059E354329434160F0BD0000E2
:10116000009800FCFFB581B007461C46002500260C
:10117000012040030090601CC2B2790001235B068D
:101180002348FFF7D9FF234D05E02846691E8DB29D
:10119000002800D136E002211D48FFF77BFF002820
:1011A000F3D01B480299FFF7B9FF15E0194D05E090
:1011B0002846691E8DB2002800D123E00221144880
:1011C000FFF768FF0028F3D03046721C96B2039AEE
:1011D000115C0F48FFF7A2FFA642E7DB0D4D06E0CA
:1011E0002846691E8DB2002801D100260AE0202180
:1011F0000748FFF74FFF0028F2D020210448FFF7EF
:101200001FFF00BFFFF7E6FE304605B0F0BD00004F
:1012100000540040FFAF000010B50D4C00200D49F8
:10122000087032212046FEF7FBFF4006400E0949B8
:10123000487002230A4624211220FFF793FF022858
:1012400005D00223034A24211220FFF78BFF10BD93
:10125000B20C00003C0100201CB56846FFF754FEAC
:10126000032168464171002101710221C1710120F1
:10127000009069460920C006FFF7C4FD0122064917
:10128000064800F054FD064A0621044800F01EFC02
:10129000024800F06DFD1CBDA512000814010020DD
:1012A000090D000810B501210920C006FFF714FE42
:1012B00010BD10B510210920C006FFF717FE01214F
:1012C000081AC4B2224610210920C006FFF728FEE2
:1012D00010BD1CB56846FFF717FE102000900321D3
:1012E0006846417101210171C17100218171694616
:1012F0000920C006FFF786FD10210920C006FFF770
:10130000FFFD1CBD10B5024600201388104C248838
:10131000A3420CDD13880F4CE31A0D4C24881B19D3
:101320008B4201DB012300E00023184609E013880B
:10133000074C2488E31A8B4201DB012300E00023E1
:101340001846002802D0024B1B88138010BD0000F5
:1013500040000020FFFF000010B50B4CF0202040A3
:101360000A4908702012487002230A4604211220FC
:10137000FFF7F8FE022805D00223044A04211220B8
:10138000FFF7F0FE10BD0000A04100003C0100206E
:1013900010B5192464020020094908702012487011
:1013A00002230A460C211220FFF7DCFE022805D09A
:1013B0000223034A0C211220FFF7D4FE10BD0000C7
:1013C0003C0100207047000000218278002A27D0CD
:1013D000184A03231B02D21803789B109B00D15894
:1013E00002789207D30EFF229A400B469343194688
:1013F00042789207120E03789B07DB0E9A40114346
:101400000C4A03231B02D21803789B109B00D15077
:101410000278D306DB0E01229A40064B1A6007E0E1
:101420000278D306DB0E01229A40024B80331A6009
:101430007047000000E100E010B57D242401002089
:101440000B49087032212046FEF7EAFE0849487031
:1014500002230A4608211220FFF784FE022805D045
:101460000223034A08211220FFF77CFE10BD000072
:101470003C01002010B50B4CC02020400A490870E8
:101480002012487002230A4606211220FFF76AFE46
:10149000022805D00223044A06211220FFF762FE2B
:1014A00010BD0000A03C00003C0100200349096879
:1014B00082001143014A1160704700000070004033
:1014C00001460020044A52680A40002A01D0012047
:1014D00000E00020704700000070004070470000EE
:1014E000002905D0054A52690243044B5A6104E0C1
:1014F000024A52698243014B5A6170470010024010
:10150000002905D0054AD2690243044BDA6104E0A0
:10151000024AD2698243014BDA61704700100240EF
:10152000002905D0054A12690243044B1A6104E000
:10153000024A12698243014B1A617047001002404F
:101540000549096B10229143034A11631146096B47
:101550000143116370470000001002407047000013
:101560000CB5002001900090334800680121084329
:101570003149086000BF30480068022108400090EF
:101580000198401C01900098002804D1052109030E
:1015900001988842EFD128480068022108400028BD
:1015A00002D00120009001E0002000900098012866
:1015B00040D11120214908601F4840681E494860F9
:1015C00008464068486008460068012109068843CB
:1015D00019490860084640687B21C90388431649B9
:1015E0004860084640680521C9040843124948601C
:1015F000084600680121090608430F49086000BF3A
:101600000D4800680121490608400028F8D00A4822
:101610004068800880000849486008464068022108
:1016200008430549486000BF034840680C21084052
:101630000828F9D10CBD0000001002400020024033
:1016400000487047680000207047000010B51B4834
:101650000068012108431949086008464068184994
:101660000840164948600846006816490840134972
:101670000860084600680121890488430F49086012
:10168000084640683F21090488430C4948600846E1
:10169000C06A00090001C8620846006BFF2154318E
:1016A0008843064908630846406B40084000486389
:1016B00000208860FFF754FF10BD000000100240BA
:1016C0000CB8FF08FFFFF6FE70B50446084800F0AE
:1016D00099F805192946064800F0B4F801220221BC
:1016E000034800F0A5F80221014800F079F870BD28
:1016F0000020004010B500220221044800F098F8B4
:101700000221024800F06CF810BD000000200040EB
:1017100010B50221084800F078F801280BD1022109
:10172000054800F05AF8FFF7E5FF00F05FF9FFF712
:1017300087FF0121017010BD0020004010B5FFF7A8
:10174000E7FF10BD704770470EB501210220FFF77B
:10175000D7FE012001900C496846018000210181DB
:10176000418081726946094800F06EF801210748FE
:1017700000F033F801221146044800F059F8012125
:10178000024800F031F80EBDBF5D000000040040CB
:1017900010B50121074800F038F8012808D10121CF
:1017A000044800F01DF804480088401C02490880E5
:1017B00010BD0000000400404000002010B5FFF7FD
:1017C000E7FF10BD38B5044610216846017044702B
:1017D00001218170FFF7F8FD38BDCA4302827047CE
:1017E000CA43028270470000002904D00288012306
:1017F0001A43028003E00288014B1A4002807047BE
:10180000FEFF00000146486A704730B502460020DE
:1018100000230024158A0D402B4695890D402C4647
:10182000002B03D0002C01D0012000E0002030BDAF
:10183000002A03D083890B43838102E083898B4391
:10184000838170474163704700220288154B98429C
:1018500006D001239B07984202D0134B984203D134
:10186000124B1A404B881A43114B984203D0114B2C
:101870001A400B891A4302804B68C3620B880385A8
:10188000084B984208D00C4B984205D00B4B98421D
:1018900002D00B4B984201D18B7A038601238382BD
:1018A00070470000002C0140000400408FFF000042
:1018B00000100040FFFC00000040014000440140D7
:1018C0000048014010B5042409480470201208495A
:1018D000487002230A4670214020FFF743FC02288B
:1018E00005D00223024A70214020FFF73BFC10BDC7
:1018F0003C0100201CB56846FFF706FB0321684643
:10190000417101210171C17100218171022000909A
:1019100069460920C006FFF775FA1CBD10B5022103
:101920000920C006FFF7EEFA10BD000010B52649E9
:10193000264800F070F801281AD12349234800F006
:1019400061F823484078802802D10020204948705F
:101950001E4800F0A8F8C1B21D484278801C81548E
:10196000801E4078401C1A4948700A20FFF7ACFEE0
:101970001849164800F04FF8012806D1134800F026
:1019800092F81449114800F03DF813490F4800F04F
:1019900042F8012803D110490C4800F033F80F49F0
:1019A0000A4800F038F8012803D10C49074800F034
:1019B00029F80B49054800F02EF8012803D1084901
:1019C000024800F01FF810BD050105000038014075
:1019D0006800002000030300000301000E01110055
:1019E0000003020010B5FFF7A1FF10BD10B50022E3
:1019F0000249034800F036F810BD0000050105005B
:101A00000038014010B5002300220B0C01249C403B
:101A10002246026210BD70B502460B46002400212A
:101A2000002500201E04350ED9B201268E40314615
:101A3000012D02D11668314006E0022D02D1566810
:101A4000314001E0966831401C0C0126A640344626
:101A5000D6693440002903D0002C01D0012000E0D9
:101A6000002070BDF8B5034600240026009600252E
:101A7000002018460E04340ECEB200960127009EB8
:101A8000B7403D46022C01D1001D02E0032C00D1DD
:101A90000830002A03D006682E43066002E006687C
:101AA000AE430660F8BD0146888CC005C00D704786
:101AB00030B47446641E2578641CAB4204D3635D65
:101AC0005B00E31830BC18471D46F8E710B58C00E2
:101AD000034608331A5110BD70B50446606880474C
:101AE0000546E0784007400F002802DD2088401CB2
:101AF0002080E078C009A8421CD0E07838218843D3
:101B0000E1788906490F491CC90038221140084371
:101B1000E0708006400F032810DBE07880218843C6
:101B2000E901802211400843E070E07838218843C1
:101B3000E07003E0E07838218843E070E078400707
:101B4000400F0300FFF7B4FF06042856ACF1CEF1B6
:101B5000E078C009E1784906C90F884216D1A0781B
:101B6000F0218843A070A068002802D02046A16818
:101B7000884700202080A07800090001401CA07048
:101B8000E078C008C000401CE07004E0A078F021BC
:101B900088438030A070C8E0E078C009E178490649
:101BA000C90F884212D0A078F02188431030A0706D
:101BB000E068002802D02046E168884700202080A5
:101BC000E078C008C000801CE07012E0208828285F
:101BD0000FDDA078F02188435030A070E069002824
:101BE00002D02046E1698847E078C008C000401D67
:101BF000E0709AE0E078C009E1784906C90F8842B0
:101C000025D1A078F0218843A070A068002802D0D8
:101C10002046A1688847A07800090001A178491CE6
:101C20000907090F0843A070A078F02188432030ED
:101C3000A0702069002802D0204621698847002032
:101C40002080E078C008C000C01CE07027E0208839
:101C50000C2824DDA0780007000F01280BD1A07804
:101C6000F02188433030A0706069002813D02046EE
:101C7000616988470FE0A0780007000F02280AD1A9
:101C8000A078F02188434030A070A069002802D0DD
:101C90002046A1698847E078C008C000E07044E0B1
:101CA000E078C009E1784906C90F884219D0A078C8
:101CB000F02188431030A070E068002802D0204650
:101CC000E168884720880C2807DA00202080E07827
:101CD000C008C000801CE07003E0E078C008C000CD
:101CE000E07022E0E078C009E1784906C90F884237
:101CF0000BD1A078F02188436030A070206A0028C2
:101D000012D02046216A88470EE0A078F02188434F
:101D10001030A070E068002802D02046E1688847B3
:101D2000E078C008C000E07000BF00BF70BDF8B52B
:101D300004460D46164628212046FEF765FAA0788F
:101D4000F02188438030A070656060688047C001E2
:101D5000802108400746E07888433843E070E07807
:101D600040218843B101402211400843E070F8BD92
:101D700001460948026805E08A4202D10020C043BA
:101D80007047526A002AF7D1034800684862024847
:101D900001600020F4E700006400002010B5054851
:101DA000046803E02046FFF797FE646A002CF9D12F
:101DB00010BD000064000020FEF783FF30E01948EA
:101DC0000068418817480068FFF79CFA002803D094
:101DD000144909684868804712480068083011496A
:101DE00008604068002801D10F4808600F4800686B
:101DF00000680078002809D00C490968096848681B
:101E00008047002009490968096808700748006888
:101E1000001D064908600068002801D104480860D8
:101E2000CDE7000038000020080000203C00002022
:101E3000000000205A0000000A00010050000000CD
:101E400014000100460000001E0001003C000000DC
:101E500028000100320000003200010028000000CC
:101E60003C0001001E0000004600010014000000BC
:101E7000500001000A000000A00F01000000000057
:101E800080807F7E7D7C7B7A7978777676757473B7
:101E9000727171706F6E6E6D6C6C6B6A6A69686876
:101EA000676666656464636362616160605F5F5E0C
:101EB0005E5D5D5C5C5B5B5A5A5959585857575682
:101EC00056555555545453535252525151505050E7
:101ED0004F4F4F4E4E4D4D4D4C4C4C4B4B4B4A4A39
:101EE0004A4949494848484747474746464645457D
:101EF00045444444444343434342424242414141B6
:101F0000201F00080000002068000000F800000802
:101F1000881F00086800002048070000140100081E
:101F200044000020000000000000F401B31200088B
:101F300000003200390B0008000019009D1D000848
:101F40000000F401D50F000800000A00550D00083C
:101F50000000000000000000080000200000002039
:101F60000000000000000000C5180008000000008C
:101F7000000000000000000000000000341E000807
:081F8000000000000000000059
:04000005080000B53A
:00000001FF
