:020000040800F2
:100000001007002091010008FB090008A50900085D
:1000100000000000000000000000000000000000E0
:100020000000000000000000000000008D0D00082E
:100030000000000000000000E10A0008B90E0008FE
:10004000C101000800000000C1010008C101000852
:10005000C1010008CB070008C1010008C101000868
:1000600000000000C1010008C1010008C101000832
:10007000C1010008C1010008C10100080000000022
:10008000051200080000000000000000F90F000841
:10009000C101000817100008C9100008C1010008BC
:1000A000C1010008C1010008C1010008D9140008FD
:1000B000C101000800F002F800F03EF80CA030C8C2
:1000C000083824182D18A246671EAB4654465D46D4
:1000D000AC4201D100F030F87E460F3E0FCCB64660
:1000E0000126334200D0FB1AA246AB4633431847E1
:1000F000F81A0000181B0000103A02D378C878C123
:10010000FAD8520701D330C830C101D504680C6059
:10011000704700000023002400250026103A01D378
:1001200078C1FBD8520700D330C100D50B607047AF
:100130001FB51FBD10B510BD00F070FA1146FFF7D6
:10014000F7FF01F047FB00F088FA03B4FFF7F2FF76
:1001500003BC00F0BDFA000070B505460C4616461B
:1001600002E00FCC0FC5103E102EFAD2082E02D39B
:1001700003CC03C5083E042E07D301CC01C5361FAE
:1001800003E021782970641C6D1C761EF9D270BDC5
:100190000F4880F308880F480168090E0E4A914203
:1001A00005D10E480E4901600E480F4901600F4805
:1001B00080470F480047FEE7FEE7FEE7FEE7FEE761
:1001C000FEE700000B480C490C4A0D4B704700003D
:1001D00010070020040000001F000000181002405B
:1001E000010000000000014000000000BD0E0008FA
:1001F000B5000008100100201007002010030020A7
:1002000010030020F8B5042A2CD3830712D00B78F2
:10021000491C0370401C521E83070BD00B78491CED
:100220000370401C521E830704D00B78491C0370D6
:10023000401C521E8B079B0F05D0C91ADF002023DC
:10024000DE1B08C90AE0FFF787FFF8BD1D4608C995
:10025000FD401C46B4402C4310C0121F042AF5D2A6
:10026000F308C91A521EF0D40B78491C0370401CC5
:10027000521EEAD40B78491C0370401C012AE4D4B6
:1002800009780170F8BD002203098B422CD3030AC0
:100290008B4211D300239C464EE003460B433CD4D3
:1002A000002243088B4231D303098B421CD3030A3B
:1002B0008B4201D394463FE0C3098B4201D3CB016B
:1002C000C01A524183098B4201D38B01C01A52419B
:1002D00043098B4201D34B01C01A524103098B429F
:1002E00001D30B01C01A5241C3088B4201D3CB008A
:1002F000C01A524183088B4201D38B00C01A52416D
:1003000043088B4201D34B00C01A5241411A00D21C
:1003100001465241104670475DE0CA0F00D0494285
:10032000031000D34042534000229C4603098B42F5
:100330002DD3030A8B4212D3FC22890112BA030A7D
:100340008B420CD3890192118B4208D389019211FF
:100350008B4204D389013AD0921100E08909C30984
:100360008B4201D3CB01C01A524183098B4201D386
:100370008B01C01A524143098B4201D34B01C01A71
:10038000524103098B4201D30B01C01A5241C308E9
:100390008B4201D3CB00C01A524183088B4201D358
:1003A0008B00C01A5241D9D243088B4201D34B0073
:1003B000C01A5241411A00D20146634652415B10B5
:1003C000104601D34042002B00D549427047634696
:1003D0005B1000D3404201B50020C046C04602BDBC
:1003E0007047704770470000F0B5FF252D04C6091F
:1003F000C209FF2704462E400137CB093E4348403F
:100400002A402B400746002A6BD0002B69D0AA4215
:1004100067D0AB4265D0002800DA32460125ED05F1
:1004200029432C4309022002090AD21A4B0C7F24CB
:10043000E31A434C000A7C44E35C7D242404121933
:1004400014145B00A218884201D3521C00E0400043
:1004500049420C465C4324115C43DB016415E318FC
:10046000040A5C43C502200D0C4644436419250A66
:100470005D432303EC0C0D46654300030019EB18A4
:100480004C42A34201D35B18401CD4052018002B1A
:1004900007D05B00C91804D3401C002901D14008D3
:1004A00040003F2189048A4209D3002A08DC110652
:1004B000090F04D0032149074018C00FC007F0BD41
:1004C00001224100120689187F2252069142F6D27B
:1004D00005214907C84201D59010F0BDFF20C00595
:1004E000F0BD002F00DA32461648AA4207D2AB42CE
:1004F00005D21902090E17D0F80FC007F0BDFF256D
:1005000063002D06AB42F9D84900A942F6D8AB42A8
:1005100001D1A942F2D0A94201D1002101E061003C
:100520004908D0050843F0BD1102090EFBD0FF2099
:100530000243D005F0BD0A460146104654E70000CC
:100540006E1700000000C07F0102C21504D0012315
:10055000DB071943002A0ADB9E239A1A02D40846B5
:10056000D0407047FF2241001206914201D900207D
:100570007047C017C043704710B5FF231B064400E7
:100580009C421DD84C009C421AD80346124A0B4389
:1005900007D4401A02D3EFF3008010BDEFF30080C0
:1005A00010BD081A06D2EFF3008001219043C9075D
:1005B000084302E0EFF30080904380F3008810BD11
:1005C0000D231B041A4204D01146002000F006F847
:1005D00010BD00F01BF810BD00000090C80212D53D
:1005E0004803400F002804D0C803C04301218840BD
:1005F0007047EFF300800001000903210907084359
:1006000080F30088704700207047000010B5024852
:1006100000F02BF810BD00000000C07F754600F010
:1006200053F8AE46050069465346C008C0008546EB
:1006300018B020B5FFF7C6FD60BC00274908B646D4
:100640000026C0C5C0C5C0C5C0C5C0C5C0C5C0C5E1
:10065000C0C5403D49008D46704710B50446C046B0
:10066000C0462046FFF771FD10BD10B50C461107BE
:10067000090F092904D00A290AD008290CD104E05D
:1006800011460820FFF7AAFF06E0510606D501E053
:10069000510601D50120C007214610BDD10607D55E
:1006A00001010909CC084907000E0006044309E0CE
:1006B000410F20024907000A0143200E00061D22B7
:1006C000D14101430846E7E700487047AC000020ED
:1006D00001491820ABBEFEE726000200704710B5A6
:1006E00001212320400400F0FDF90121080700F05A
:1006F00009FA00F069F900F08FFC00F0E7FC00F067
:100700003DFD002000F082FD00F03AFC012000F0E9
:1007100077FC00F0E5FE022000F044FF00F01DF839
:10072000032000F00FF810BD10B50246002003E0D2
:100730001478521C2318D8B20B464C1EE1B2002B81
:10074000F6D110BD38B504460521684601704470E5
:100750000121817000F052F938BD1FB50022114609
:100760000920C00600F0DEF802A800F009F9012017
:100770000290002168460173032141730221C17375
:1007800002A90920C00600F085F80121084600F002
:10079000C9F90021084600F0FBFA684600F072F83B
:1007A000012000900021684601710821417101215A
:1007B000817100F023F81FBD10B5012000F010F882
:1007C000012801D100F006F810BD10B5FFF7F4FFC5
:1007D00010BD00000149486170470000000401405D
:1007E00001460020044A52690A40002A01D0012033
:1007F00000E0002070470000000401400021204973
:100800008279002A35D00A46126803689A430B465B
:100810001A600A46526803689A430B465A60027986
:1008200051180A6803681A430A60154A92680368F7
:100830009A43134B9A601A46D26803689A43104B46
:10084000DA604279102A0CD11A46926803681A437A
:100850000B4B9A601A46D26803681A43084BDA6059
:100860000DE00749427951180A6803681A430A6083
:1008700005E0027951180A6803689A430A607047D4
:10088000000401400021016001710C21417100212F
:1008900081717047F0B50A4600210023002400BF93
:1008A0003DE001258D402B4615681D402C469C429D
:1008B00034D11579012D02D01579022D16D1856814
:1008C0004F000326BE40B543856055794E00B540C4
:1008D000866835438560858801268E40B5438580CE
:1008E000858896798E40B6B23543858005684F007D
:1008F0000326BE40B543056015794E00B540066835
:1009000035430560C5684F000326BE40B543C5604A
:10091000D5794E00B540C6683543C560491C1029DD
:10092000BFD3F0BDF0B5002300244D07EE0E1546F1
:10093000B5402B46CD10AE0005462035AD594E07CB
:10094000F70E0F26BE40B543CE10B600074620373F
:10095000BD51CD10AE003D46AD591D432C46CD10C6
:10096000AD003E467451F0BD02460020938A0B4014
:10097000002B01D0012000E0002070470185704766
:10098000044901600021017101214171002181713F
:10099000C1717047FFFF0000002A01D0816100E0B3
:1009A0000185704700BFFEE710B510210920C00681
:1009B000FFF7DAFF0121081AC4B2224610210920EC
:1009C000C006FFF7E9FF10BD1CB56846FFF7D8FF6A
:1009D0001020009003216846417101210171C1710D
:1009E0000021817169460920C006FFF753FF1021DD
:1009F0000920C006FFF7C2FF1CBD704700218278A6
:100A0000002A27D0184A03231B02D21803789B1010
:100A10009B00D15802789207D30EFF229A400B46D2
:100A20009343194642789207120E03789B07DB0E18
:100A30009A4011430C4A03231B02D21803789B10DF
:100A40009B00D1500278D306DB0E01229A40064B60
:100A50001A6007E00278D306DB0E01229A40024BAF
:100A600080331A607047000000E100E00349096824
:100A700082001143014A116070470000007000407D
:100A800006480068022108430449086004480069D8
:100A9000042108430249086130BF704700700040DC
:100AA00000ED00E001460020044A52680A40002A96
:100AB00001D0012000E000207047000000700040DD
:100AC000002905D0054A52680243044B5A6004E0ED
:100AD000024A52688243014B5A60704700700040DE
:100AE00070470000002905D0054A52690243044BB3
:100AF0005A6104E0024A52698243014B5A617047CD
:100B000000100240002905D0054AD2690243044B77
:100B1000DA6104E0024AD2698243014BDA6170472C
:100B200000100240002905D0054A92690243044B97
:100B30009A6104E0024A92698243014B9A617047CC
:100B400000100240FEB50446002500260020029059
:100B5000019000900027864840680C210840054617
:100B6000002D06D0042D07D0082D08D00C2D2CD137
:100B700028E0804820602BE07E48206028E07C4808
:100B800040680F21890408400646794840680321DF
:100B9000C90308400290B00C861C0298002803D1BB
:100BA0007548374647430BE07148C06A0007000F9D
:100BB000401C01906F480199FFF765FB70430746A1
:100BC000276005E06D48206002E06A48206000BFB1
:100BD00000BF67484068F021084005462D09684875
:100BE000405D009020680099C8406060604840689F
:100BF00007210902084005462D0A6148405D009022
:100C000061680098C140A1605948006BFF21013123
:100C10000840884202D05B48E0600DE054484068DC
:100C2000012189030840884203D0A0684008E060A1
:100C300002E0A0688008E0604D48006B4021084059
:100C4000402802D05048206102E00120C00320610A
:100C50004748006B10210840102802D045486061C9
:100C600001E0206860614248006B8007800F002827
:100C700002D1A068A06119E03D48006B8007800F99
:100C8000012802D12068A06110E03948006B80077C
:100C9000800F022802D18003A06107E03448006B76
:100CA0008007800F032801D13248A0613048006BD3
:100CB000032109040840002802D1A068E06120E077
:100CC0002B48006B032109040840012109048842D4
:100CD00002D12068E06114E02548006B032109047B
:100CE000084001214904884202D18010E06108E0F7
:100CF0001F48006B032109040840884201D11D48A8
:100D0000E0611B48006B032189040840002802D1E0
:100D1000A068206220E01648006B03218904084087
:100D200001218904884202D12068206214E0104821
:100D3000006B0321890408400121C904884202D1C3
:100D40000011206208E00A48006B03218904084072
:100D5000884201D1074820620548006B8021084085
:100D6000802802D00548606200E06762FEBD000096
:100D70000010024000127A0000093D00006CDC0205
:100D800018000020809FD5001280000070470000EE
:100D900030B500228B071C0F0F23A3401A460B4BC4
:100DA0008C10A4001B599343084C8D10AD00635167
:100DB00023468C10A4001B598C07250F0446AC4019
:100DC0002343024C8D10AD00635130BD080001403B
:100DD0000CB50020019000903348006801210843C1
:100DE0003149086000BF3048006802210840009087
:100DF0000198401C01900098002804D105210903A6
:100E000001988842EFD12848006802210840002854
:100E100002D00120009001E00020009000980128FD
:100E200040D11120214908601F4840681E49486090
:100E30000846406848600846006801210906884362
:100E400019490860084640687B21C9038843164950
:100E50004860084640680521C904084312494860B3
:100E6000084600680121090608430F49086000BFD1
:100E70000D4800680121490608400028F8D00A48BA
:100E800040688008800008494860084640680221A0
:100E900008430549486000BF034840680C210840EA
:100EA0000828F9D10CBD00000010024000200240CB
:100EB00000487047280000207047000010B51B480C
:100EC000006801210843194908600846406818492C
:100ED000084016494860084600681649084013490A
:100EE0000860084600680121890488430F490860AA
:100EF000084640683F21090488430C494860084679
:100F0000C06A00090001C8620846006BFF21543125
:100F10008843064908630846406B40084000486320
:100F200000208860FFF754FF10BD00000010024051
:100F30000CB8FF08FFFFF6FE70B50446084800F045
:100F4000A4F905192946064800F020FA01220221D9
:100F5000034800F0B0F90221014800F074F970BDB7
:100F60000020004010B500220221044800F0A3F93F
:100F70000221024800F067F910BD00000020004087
:100F80000EB5684600F042FA01210802FFF7BAFDEB
:100F90000A4801900A490B480068FFF774F981B2CA
:100FA000684601800021018141806946064800F0C1
:100FB000EFF90121044800F049F90EBDFFFF0000E0
:100FC00010270000040000200020004010B502217E
:100FD000084800F05DF901280BD10221054800F016
:100FE0002FF9FFF7BFFF00F0E9FAFFF761FF0121DA
:100FF000017010BD0020004010B5FFF7E7FF10BDE5
:1010000038B504461321684601704470012181708F
:10101000FFF7F4FC38BD704700B58BB009A8FFF7A7
:10102000AFFC06A800F0F2F901A800F0A5F94020F5
:101030000990022108A801720321417200218172E6
:101040000121C17209A90920C006FFF723FC05226E
:1010500006210920C006FFF765FC01214804FFF7BF
:1010600061FDFF21E03168460183154807900021AA
:1010700068464183018408A8817006A9114800F0E0
:1010800087F9962003906021684681800121C18004
:101090000021018201A90B4800F018F90821094834
:1010A00000F05EF90121074800F0BCF80121054875
:1010B00000F0CCF80121034800F0D6F80BB000BDD9
:1010C000CF070000004401407047000000B58BB01E
:1010D00009A8FFF755FC06A800F098F901A800F050
:1010E0004BF980200990022108A801720321417266
:1010F000002181720121C17209A90920C006FFF7F0
:10110000C9FB052207210920C006FFF70BFC0121BE
:101110008804FFF707FDFF21E03168460183154889
:101120000790002168464183018408A8817006A9C0
:10113000114800F02DF996200390602168468180C7
:101140000121C1800021018201A90B4800F0BEF8F5
:101150000821094800F004F90121074800F062F86D
:101160000121054800F072F80121034800F07CF8E5
:101170000BB000BDCF070000004801400EB50121B3
:101180000220FFF7BFFC012001900C496846018056
:1011900000210181418081726946094800F0F8F818
:1011A0000121074800F04CF801221146044800F0E4
:1011B00082F80121024800F049F80EBDBF5D000031
:1011C0000004004010B501210C4800F061F801282E
:1011D00012D10121094800F036F809480188008839
:1011E000401C074A1080FF20F530814204D10020C6
:1011F00011460880FFF7D8FB10BD00000004004036
:101200000000002010B5FFF7DDFF10BD38B5044623
:10121000102168460170447001218170FFF7EEFBD8
:1012200038BD0000002904D0028880231A430280C0
:1012300003E00288014B1A40028070477FFF0000E4
:10124000CA4302827047CA4302827047002904D011
:10125000028801231A43028003E00288014B1A40EE
:1012600002807047FEFF0000002907D04422125A76
:101270000123DB031A4344231A5205E04422125A85
:1012800053045B0C4422135270470146486A70476E
:1012900030B50246002000230024158A0D402B465D
:1012A00095890D402C46002B03D0002C01D0012045
:1012B00000E0002030BD002A03D083890B438381E6
:1012C00002E083898B4383817047000070B500245E
:1012D00000220023058C1C4E35400584028C838837
:1012E000048B194D6F3D2C40B51E2C400D882C43AE
:1012F000751E2A408D892A434D882A43134DA842E2
:1013000008D0134DA84205D0124DA84202D0124D6C
:10131000A84212D10C4DED1F2A40CD892A430A4D17
:10132000ED1E2A408D882A43074DFF3D2B400B4D73
:101330002B400D8A2B434D8A2B43838004838D6879
:101340004563028470BD0000FEFF0000002C0140D8
:10135000004001400044014000480140FFFD000002
:101360000A460021018B034B19400B4613431946D3
:1013700001837047F7FF00000021018041808180D8
:1013800081608181C18101824182704741637047E0
:1013900000220288154B984206D001239B079842F1
:1013A00002D0134B984203D1124B1A404B881A4378
:1013B000114B984203D0114B1A400B891A430280FB
:1013C0004B68C3620B880385084B984208D00C4BCE
:1013D000984205D00B4B984202D00B4B984201D15A
:1013E0008B7A03860123838270470000002C014022
:1013F000000400408FFF000000100040FFFC0000D0
:101400000040014000440140004801400021C94320
:10141000416000210180018141808172704700009C
:1014200010B52649264800F0FEF801281AD12349B4
:10143000234800F0E3F823484078802802D10020B8
:10144000204948701E4800F0B3F9C1B21D484278E7
:10145000801C8154801E4078401C1A4948700A2024
:10146000FFF76AFD1849164800F0DDF8012806D19B
:10147000134800F09DF91449114800F0BFF81349D2
:101480000F4800F0D0F8012803D110490C4800F0B3
:10149000B5F80F490A4800F0C6F8012803D10C49F5
:1014A000074800F0ABF80B49054800F0BCF80128EC
:1014B00003D10849024800F0A1F810BD050105005C
:1014C0000038014028000020000303000003010051
:1014D0000E0111000003020010B5FFF7A1FF10BDBF
:1014E00000B589B007A8FFF74BFA01218803FFF781
:1014F00019FB01220921C806FFF714FA01220A216B
:101500000920C006FFF70EFA0320400207900221CF
:1015100008A8017003214170002181700121C17070
:1015200007A90920C006FFF7B5F901A800F045F9A1
:101530004B2000020190002002900390049006903E
:101540000C20059001A9114800F0B6F801221049BD
:101550000E4800F08FF801220E490C4800F08AF87E
:1015600001220D49094800F085F801220B4907487E
:1015700000F080F801220A49044800F07BF80121BC
:10158000024800F044F809B000BD000000380140F6
:101590000501050000030300000301000E01110016
:1015A0000003020038B504461B21684601704470F0
:1015B00001218170FFF722FA38BD000010B500222A
:1015C0000249034800F056F810BD0000050105006F
:1015D0000038014010B5064800F0EAF82021044820
:1015E00000F00AF801220349014800F043F810BD59
:1015F00000380140050105000162704710B5002365
:1016000000220B0C01249C402246026210BD0029DE
:1016100004D0026801231A43026003E00268520802
:1016200052000260704770B502460B46002400214C
:10163000002500201E04350ED9B201268E40314609
:10164000012D02D11668314006E0022D02D1566804
:10165000314001E0966831401C0C0126A64034461A
:10166000D6693440002903D0002C01D0012000E0CD
:10167000002070BDF8B50346002400260096002522
:10168000002018460E04340ECEB200960127009EAC
:10169000B7403D46022C01D1001D02E0032C00D1D1
:1016A0000830002A03D006682E43066002E0066870
:1016B000AE430660F8BD0000F0B58BB004460D46A1
:1016C000002700200A900026206840084000206083
:1016D000666803210903304688430646A868064326
:1016E000666026682D480640E968686808432969ED
:1016F000084306432660A668032109023046884352
:10170000064668690643A6606846FFF71BFA244848
:10171000844202D106980A900DE02248844202D108
:1017200007980A9007E02048844202D108980A905E
:1017300001E002980A9020680121C90308400028AE
:101740000CD029680A9A5000FEF79DFD07462968CB
:101750000A9A5000FEF797FD0E4609E029680A989C
:10176000FEF791FD074629680A98FEF78CFD0E46A4
:1017700028684008B04200D87F1C20680121C903B6
:101780000840002806D03807460F38460749084069
:1017900030430746A7810BB0F0BD0000F3E9FFFF1F
:1017A000003801400044004000480040F0FF0000C5
:1017B0000146888CC005C00D70474B21C9010160EE
:1017C000002141608160C1600C2101610021416103
:1017D000704700000EB5FEF782FF0120FFF762F9A7
:1017E000012802D1FFF742F905E001210802FFF7C5
:1017F00067F9FFF745F96CE0FFF75AFB007800281E
:1018000067D0FFF755FB0446607809285BD1607804
:10181000401EC1B2A01CFEF787FF6178491EA21CC2
:10182000515C88424FD10422A11C02A8FEF7EAFCB9
:101830000422A11D01A8FEF7E5FC2649029800F04C
:101840009DF802D22348029006E02349029800F056
:1018500017F901D2204802901E49019800F08EF835
:1018600002D21C48019006E01B49019800F008F9DB
:1018700001D2194801901949029800F0A9F81849B5
:101880000090FEF7B1FD0746164900F031F8064614
:10189000FEF75AFE054629461348FFF777FD0F4924
:1018A000019800F095F80E490090FEF79DFD07465F
:1018B0000C4900F01DF80646FEF746FE054629468F
:1018C0000A48FFF763FD002020706070FFF782FE7A
:1018D00000BF91E7000034C3000034430000A04083
:1018E0000000104100001643004401400048014040
:1018F00070B501250400ED074C4020D4441A01D2F4
:10190000001B0919C60D4B00F2B2FF2A29D01B0E8D
:101910002CD000020C02D31A2C43DC4028430519BA
:1019200010D2280A02D3401C6D0611D0761EF6058F
:101930008019FF2A00DA70BDC00DC00570BD694076
:1019400000F0D0F801200543C541521C761CE8E7A1
:1019500064089C40C90161408900E7D10124A0438B
:10196000E4E71B0E440200D0034870BD002AFCD1FE
:10197000C00FC00770BD00BF0000C07F0123020080
:10198000DB050A430DD4DA4203D49A4207D48842D5
:101990007047D84214D4D94212D48842704780424A
:1019A0007047DA4203D59A42F9D5814270475B000D
:1019B0004200DA4204D24A00DA4201D28142704740
:1019C00010B5024AFEF7D8FD10BD00BF090016048D
:1019D00070B5420064414B005C41120E39D01B0EC1
:1019E00038D0FF2A3CD0FF2B3AD040024902400AAF
:1019F000490A060045184E43000A090AD21848430E
:101A0000ED017F3A0104731A4019190C4318990F1C
:101A100004D001215B0849075B1A521CD80904D382
:101A2000401CF50301D19D0607D0FF2A08D2D50539
:101A300006D0E4072043401970BD0125A843F4E710
:101A4000002A01DCE00770BD2402FF202043C0050E
:101A500070BD1B0EFF2A03D0FF2B01D0E00770BD25
:101A6000FF2645003606B54206D84D00B54203D8DC
:101A7000D218FF2A00D0E7E7004870BD0000C07F01
:101A800001230A00DB0502430DD4DA4203D49A4253
:101A900007D481427047D94214D4D84212D481422B
:101AA000704789427047DA4203D59A42F9D5884295
:101AB00070475B004A00DA4204D24200DA4201D2A7
:101AC000884270474840414010B5024A4840FEF7FE
:101AD00053FD10BD0900160470B501250400ED0783
:101AE0004C4022D4441A02D26C40001B0919C60D86
:101AF0004B00F2B2FF2A4BD01B0E50D000020C025A
:101B0000D31A2C43DC40A843051B05D5AD0019D3DF
:101B10006D08761E521E37D0F605280A01D28019AC
:101B200070BD70416D0603D070BD6940FFF7E6FEE1
:101B30009C4009026140490001D0401E70BD012453
:101B4000A04370BD6D081DD001202B0C01D12D04C8
:101B500010302B0E01D12D0208302B0F01D12D0199
:101B6000001DAB0F01D1AD00801CEB0F01D16D004A
:101B7000401C6D00361A121A680AF5054019012A30
:101B800002DB70BD002070BDC036300AC00770BDDA
:101B90001B0E440201D1FF2B00D1024870BD002A68
:101BA000F0D070BD0000C07F8182838485868788E5
:101BB000898B8C8D8E8F919293959697999A9C9DF7
:101BC0009FA0A2A3A5A7A8AAACAEB0B2B3B5B7B95F
:101BD000BCBEC0C2C5C7C9CCCED1D4D7D9DCDFE228
:101BE000E6E9ECF0F3F7FAFE081C0008000000201C
:101BF00028000000F8000008301C00082800002021
:101C0000E80600001401000801000000006CDC027E
:101C1000000000000000000001020304060708099C
:101C20000000000001020304010203040607080982
:04000005080000B53A
:00000001FF
